:020000040800F2
:1000000000110020F10100084D2C0008551D0008CA
:100010004B2C0008611A0008B134000800000000F1
:10002000000000000000000000000000BD2E0008DD
:10003000E51A000800000000C92C000809020008A9
:100040000B0200080B0200080B0200080B0200085C
:100050000B0200080B020008E71A00080B02000858
:100060000B0200080B0200080B0200080B0200083C
:100070000B0200080B0200080B0200080B0200082C
:100080000B0200080B0200080B0200080B0200081C
:100090000B0200080B0200080B0200080B0200080C
:1000A0000B0200080B0200080B0200080B020008FC
:1000B0000B020008F52F00080B0200080B020008D5
:1000C0000B0200080B0200080B0200080B020008DC
:1000D0000B0200080B0200080B0200080B020008CC
:1000E0000B0200080B0200080B0200080B020008BC
:1000F0000B0200080B0200080B0200080B020008AC
:100100000B0200080B0200080B0200080B0200089B
:10011000393200080B0200080B0200080B0200082D
:100120000B0200080B0200080B0200080B0200087B
:1001300000F002F800F04DF80AA090E8000C8244AC
:100140008344AAF10107DA4501D100F042F8AFF289
:10015000090EBAE80F0013F0010F18BFFB1A43F0A5
:1001600001031847C04F0000E04F0000103A24BFC1
:1001700078C878C1FAD8520724BF30C830C144BF0C
:1001800004680C607047000000230024002500264E
:10019000103A28BF78C1FBD8520728BF30C148BFEA
:1001A0000B607047662904F03C86642900F0768075
:1001B000782900F0AF80002070471FB500F0FCFBED
:1001C00004000020002103F0F1FDE0601FBD10B528
:1001D00010BD00F011FD1146FFF7EFFF03F038FDF1
:1001E00000F02FFD03B4FFF7F2FF03BC03F0E5F9C5
:1001F0000948804709480047FEE7FEE7FEE7FEE7BB
:10020000FEE7FEE7FEE7FEE7FEE7FEE704480549F6
:10021000054A064B70470000A52F00083101000871
:10022000000B002000110020000D0020000D002018
:10023000704700000FB4044910B503AA029800F0FB
:10024000A9FB10BC5DF814FB3400002070B5044617
:1002500085690068C10601D5302600E02026C00768
:1002600007D070BDD4E9012130469047206A401C78
:1002700020626D1EF6D570BD70B5044685690078A4
:10028000C00707D170BDD4E9012120209047206A22
:10029000401C20626D1EF6D570BD00002DE9F041B6
:1002A0000646002410687529314616A510D0AFF314
:1002B0000080002802DA404213A507E031688A076F
:1002C00001D512A502E0490704D511A5012401E0DA
:1002D000AFF3008000210A2206F1240709E0B0FBF9
:1002E000F2FCB0FBF2F302FB1C00303078541846ED
:1002F000491C0028F3D123462A463046BDE8F04188
:1003000000F0DFB8000000002D0000002B0000000E
:100310002000000070B504460D4621461068AFF37A
:1003200000802188090502D50F4A7A4402E00E4A6E
:100330007A440E32002104F1240305E000F00F0698
:100340000009965D5E54491C0028F7D120780023EF
:10035000000704D5702D02D009B1022311322046C6
:10036000BDE8704000F0ADB8344C00002DE9F05FFE
:10037000894604464FF0000ADFF824B1FB44C0F878
:1003800020A02046E168884700287DD0252806D097
:10039000D4E901219047206A401C2062F1E7002542
:1003A0005F462046E16888472028064607DB312E55
:1003B00005D2B81910F8200C08B10543F1E7A807D9
:1003C00001D525F00405C4F81CA00027C4F818A026
:1003D0002A2E09D0304603F0E9F838B304EB870839
:1003E000303EC8F8186019E059F8041B204604EBA9
:1003F00087029161E1688847012F064618D1E069BC
:10040000002820DA25F020051DE0D8F8180000EBC0
:10041000800006EB40003038C8F818002046E1683C
:100420008847064603F0C2F80028EED1012F0AD013
:100430002E2E08D12046E16888477F1C0646022FF1
:1004400045F02005C4DBA069002803DA404245F0EE
:100450000105A061E80701D025F01005A6B1A6F1BD
:100460004100192802D8203645F400654A46314635
:10047000204625604D46FFF795FE60B1012807D064
:10048000ED1D25F0070000E007E000F1080978E71E
:1004900005F1040975E730467AE7206ABDE8F09F68
:1004A0000A4C0000704770477047704710B500F065
:1004B00087FA006810BD10B5044600F081FA0460A8
:1004C00010BD2DE9F0470D4699469246044600F1CD
:1004D00024080168880604D5E06921F01001216034
:1004E00000E00120A84201DD471B00E00027A169D0
:1004F0007A1902EB0900081AA0612078C00602D41C
:100500002046FFF7A3FE002608E0D4E901211AF8EF
:1005100006009047206A401C761C20624E45F4DBA2
:100520002078C0060AD52046FFF790FE06E0D4E901
:10053000012130209047206A401C2062381EA7F11C
:100540000107F4DC07E0D4E9012118F80500904721
:10055000206A401C2062281EA5F10105F3DC20461C
:10056000FFF78AFE2078000602D50220BDE8F0875A
:100570000120FBE770472DE9FF4F0C461E464FF068
:10058000FF378BB0D2E90001DDF860800A908A461F
:10059000C1F30A5505B93D46002108464FF0000059
:1005A000BAF1000F00F4400005DA00EB80004FF4D0
:1005B000400101EA50004FEA9059B9F1010F00DD06
:1005C000B9460A9850EA4A000ED044F61050A5F2F7
:1005D000FF3545432F14B8F1000F1ED07542291E78
:1005E0001EDDC9F100021CE0B8F1010F4FF0000060
:1005F00001D0302103E0F24305E02154401CB04219
:10060000FBDB30460022002121540B99C1F8088001
:10061000C1E900200FB0BDE8F08FBD1B6D1CDEE707
:100620004A4600DA694206A800F06CFA06AB93E885
:10063000070003AB83E8070050460A9900F04AFB25
:100640008DE80700A0F500501F3800900398002D9A
:100650000ADD42F21F014A460844002303A9039021
:10066000684600F0B3FD09E0A0F500504A461F3887
:10067000002303A90390684600F0BDFD8DE8070044
:100680000004000C03D04FF0FF30410800E010469A
:10069000B8F1000F03D00022009215461EE0751E2F
:1006A00005D400F091F9303262556D1EF9D5B3468C
:1006B0000122084302D000227F1C04E02078302869
:1006C00001D100227F1E002A099784D01DE0112D40
:1006D00007DA00F079F9303262556D1C50EA0102F8
:1006E000F5D1084302D00098C8B10EE00021681E81
:1006F00005E0235C625C63542254401E491C814225
:10070000F7DBAB46A81B401E0990002004F80B0045
:100710000B98099AC0F80880C0E9002B7AE71126E7
:100720004FF0000857E72DE9F04F88460446D21DE8
:1007300022F0070191B0D1E90001CDE90A0102F0F0
:10074000B8FE02460B98C00F01D02D2007E02068AC
:10075000810701D52B2002E0202101EAC000032AF5
:10076000099001D0072A05DB03464146204600F0E8
:1007700089F90BE12078800601D5E06900E00620C8
:10078000B8F1650F814606D0B8F1660F18D0B8F100
:10079000670F70D131E00020B9F1110F009001DB3B
:1007A000112301E009F101030AAA01A90CA8FFF72E
:1007B000E2FEDDE90C70002609F10105834647E001
:1007C00001204B4600904FF000470AAA01A90CA84F
:1007D000FFF7D1FEDDE90DB00C995D46002610B99A
:1007E00009F101000D18B9EB050003D4C0F1FF3683
:1007F00009F10105A5EB09002BE0B9F1010F01DAC0
:100800004FF001090020B9F1110F0090484601DDB9
:10081000112300E003460AAA01A90CA8FFF7ABFECA
:10082000DDE90C704D4600268346207800070AD487
:10083000AB4500DA5D4601A8012D04DD411911F830
:10084000011C302907D04F4502DA17F1040F04DAF2
:10085000012082460FE06D1EEEE7002F02DCED1B4B
:100860003E4403E0781CA84200DD7D1CB81B00F16B
:10087000010A4FF000472078000703D4AA4501DBA6
:100880004FF0FF3A0021B7F1004F0DF143088DF80A
:10089000431024D002202B23002F01DA7F422D2386
:1008A0000A21021EA0F1010000DC5FB197FBF1FC00
:1008B00097FBF1F201FB1C7C17460CF1300C08F899
:1008C00001CDEEE7A8F1010003702188090501D5EB
:1008D000452100E06521A0F1010800F8011C0998FC
:1008E0000FA9A1EB0807FF1D00B10120411901EB81
:1008F000EA70A1693844081A401EA0612078C00639
:1009000002D42046FFF7A2FC099828B1D4E90121BE
:100910009047206A401C20622078C00622D52046DD
:10092000FFF794FC1EE0002E04DBB34502DD01A8B6
:10093000805D00E03020D4E901219047206A401C0E
:100940002062761CAAF101005FEA000A0AD100F0D9
:1009500033F8C0680168405CD4E901219047206AFF
:10096000401C2062281EA5F10105DCDC07E0D4E96B
:10097000012118F8010B9047206A401C2062381EA4
:10098000A7F10107F3DC2046FFF776FC032011B046
:1009900041E60000074B70B50D467B4400F05FF860
:1009A0000446284600F020F910B14FF0FF3070BD2A
:1009B000204670BD9F32000000487047C00A0020EA
:1009C00000487047A00A002030B5B0F10A024FEA93
:1009D000900E71F100034EEA817EB0EB0E0061EBE8
:1009E00091014FEA101E4EEA017E10EB0E0041EB22
:1009F00011114FEA102E4EEA016E10EB0E0041EB82
:100A000011214FEA104E4EEA014E10EB0E0041EB61
:100A10001141401841F100014FEAD00040EA417015
:100A20004FEAD10110EB80054FEA810444EA90744B
:100A300044EB01046D1944EB0404521BA3414FF035
:100A4000000348BF0A3200D530BD401C41F100010F
:100A500030BD000001694A1C02610878704700B58A
:100A60008FB0CDE901310021059105497944CDE9E7
:100A7000031011466846FFF779FC0FB000BD000077
:100A8000E5FFFFFF2DE9F0411F46044603260168FC
:100A9000072A01F4006004DB08B116A505E016A5DD
:100AA00003E008B115A500E015A521F010002060B5
:100AB000A069C01EA0610FB1401EA0612046FFF7D3
:100AC000C5FB4FB1D4E9012138469047206A401C4C
:100AD0002062C01C206206E0206AFAE7D4E9012106
:100AE00015F8010B9047761EF8D22046FFF7C4FB9D
:100AF000BDE8F0814E414E006E616E00494E4600E9
:100B0000696E66002DE9F047814616468AB0354881
:100B100078440DC88DE80D0032487844801C03AC41
:100B20000DC884E80D0041F69B300844372190FB46
:100B3000F1F290FBF1F5A5F1800501FB12041B3CDD
:100B400002D56442012000E00020DFF898A0804632
:100B50000027FA44AAF1BE0A0EE0E0070AD03246A6
:100B6000684607EB470101230AEB810100F043FBD4
:100B70008DE8070064107F1C002CEED1194F7F44D4
:100B8000AE3F19E0E80715D007EB04100DF1180A85
:100B900090E80E008AE80E00C068F04201D1981972
:100BA00008903246012306A903A800F024FB03ABFA
:100BB00083E807006D10641C002DE3D14FF00103A2
:100BC00032466946B8F1000F03A802D000F0FEFAE1
:100BD00001E000F010FBC9E90001C9F808200AB0E3
:100BE000BDE8F087F8450000007B00F0800070470A
:100BF00000487047A00A00207546FFF7F9FFAE468F
:100C000005006946534620F00700854618B020B518
:100C1000FFF7FCFABDE820404FF000064FF0000758
:100C20004FF000084FF0000B21F00701AC46ACE894
:100C3000C009ACE8C009ACE8C009ACE8C0098D4601
:100C4000704710B50446AFF300802046BDE8104061
:100C5000FFF7C8BA4FF0013C50F8042B51F8043BA1
:100C60009A4221D1A2EB0C03934313EACC1317D180
:100C700050F8042B51F8043B9A4215D1A2EB0C0317
:100C8000934313EACC130BD150F8042B51F8043BD7
:100C90009A4209D1A2EB0C03934313EACC13DBD0A5
:100CA0004FF00000704700BFD01A01BAB1FA81F1CD
:100CB00001F0180122FA01F0CB40C1F12001DBB2B2
:100CC000C0B2C01A2CFA01F3D11A914311EAC31130
:100CD000E6D170475FEA400C08BF91F0000F4FEA81
:100CE0008C234FEAC12243EA51514FEA1C5018BFEE
:100CF00000F5F0404FEA300018BF41F000415FEAD4
:100D00006C5C00F02980BCF1FF3F08BF40F08040E0
:100D10007047130C06BF12044FF0100C4FF0000C7C
:100D2000130E04BF12020CF1080C130F04BF1201C2
:100D30000CF1040C930F04BF92000CF1020CD30FC2
:100D400004BF52000CF1010C11464FF00002A0F15B
:100D50001F00A0EB0C00704711F0004F08BF704758
:100D600031F000413FF4D5AF0B0C06BF09044FF042
:100D7000100C4FF0000C0B0E04BF09020CF1080C14
:100D80000B0F04BF09010CF1040C8B0F04BF890089
:100D90000CF1020CCB0F04BF49000CF1010CCCF19B
:100DA0002003A0EB0C0022FA03F302FA0CF241EA52
:100DB000030100F10100704720F07F4C80EA03003E
:100DC00023F07F47ACEB070303F57C5300F00040B2
:100DD00003F1FF032DE980494FEA154B09B44FEAAF
:100DE000144325EA0B4E24EA03480FF2042606EBCF
:100DF000132749083E785FEA320203FB0667C7F50E
:100E0000000707FB06F64FEA54374FEAD64606F1CD
:100E1000020607FB066CCCF1005C4FEA1C472CEA8B
:100E2000074C07FB06F40CFB06F504EB15464FEAEE
:100E3000961634BF00204FF000404FEAD13706FB32
:100E400007FC4FEA1C4C0CFB0BF7D21B03FB0CF707
:100E500061EB07010CFB0EF7B0EB074072EB17429A
:100E60000CFB08F734BFA2EB0742B2EB074261EB81
:100E700017414FEA0C444FEA910706FB07FC4FEA83
:100E80001C4C0CFB0BF7B0EBC74072EB573203FB6B
:100E90000CF734BFA2EBC742B2EBC74261EB57314C
:100EA0000CFB0EF7B0EBC70072EB57720CFB08F7A8
:100EB00034BFA2EBC702B2EBC70261EB5771039FCD
:100EC0004FEA816141EA921104EBCC044FEAD13739
:100ED0004FEA826206FB07FC42EA90124FEA80600A
:100EE0004FEA1C4C0CFB0BF7D21B03FB0CF761EB1E
:100EF00007010CFB0EF7B0EB074072EB17420CFB3F
:100F000008F734BFA2EB0742B2EB074261EB17418F
:100F10004FEA8C554FEA910704EB9C2406FB07FC33
:100F20004FEA1C4C0CFB0BF7B0EBC74072EB57328F
:100F300003FB0CF734BFA2EBC742B2EBC74261EB35
:100F400057310CFB0EF7B0EBC70072EB57720CFB7E
:100F500008F734BFA2EBC702B2EBC70261EB5771CF
:100F600015EB4C254FEA816141EA92114FEA82620A
:100F70004FEAD13742EA901206FB07FC44F1000425
:100F80004FEA80604FEA1C4C0CFB0BF7D21B03FBB3
:100F90000CF761EB07010CFB0EF7B0EB074072EBAF
:100FA00017420CFB08F734BFA2EB0742B2EB074233
:100FB00061EB174115EB1C154FEA813141EA924173
:100FC0004FEA823242EA90424FEA80304FEA0C7692
:100FD00044F1000448EA03434EEA0B484FF0000E88
:100FE000B2EB080C71EB030724BF624639464EEBA7
:100FF0000E0E4FF0000B0018524149414BEB0B0B0A
:10100000B2EB080C71EB03077BF1000B24BF6246C7
:1010100039464EEB0E0E4FF0000B0018524149417D
:101020004BEB0B0BB2EB080C71EB03077BF1000BE6
:1010300024BF624639464EEB0E0E51EA020718BF36
:1010400046F0010616EB0E7655F1000254F1000150
:1010500003D5BDE88901BDE80088BDE88901BDE888
:101060000048B619524141EB0101A3F10103704759
:1010700080807F7E7D7C7B7A7978777676757473D5
:10108000727171706F6E6E6D6C6C6B6A6A69686894
:10109000676666656464636362616160605F5F5E2A
:1010A0005E5D5D5C5C5B5B5A5A59595858575756A0
:1010B0005655555554545353525252515150505005
:1010C0004F4F4F4E4E4D4D4D4C4C4C4B4B4B4A4A57
:1010D0004A4949494848484747474746464645459B
:1010E00045444444444343434342424242414141D4
:1010F000002B9C4630D477002BD01CB54FEA370725
:1011000003B44FF010004FF01001BAF1000F06D0F9
:10111000BCF1000FDCBF40F0080040F008014FF0C8
:1011200000000FBCBDE810400BF1010BBBF1010F3B
:1011300008BF5FEA170722BF12F1010211F1010196
:101140004FF0004143F1000300F0004043EA00008B
:101150007047F9D35708D0E746EA064613F1400F27
:101160004FEA16461FDD13F1200FDFBF16430A4674
:10117000002120335B42BED0C3F1200746EA064679
:1011800002FA07F74FEA164646EA0706C3F12007B8
:1011900022FA03F201FA07F721FA03F14FF00003F4
:1011A00042EA0702A7E746EA020646EA06464FEA8F
:1011B000164646EA0106BCBF46EA0646360C4FF024
:1011C00000034FF000024FF0000194E72DE9804C3E
:1011D0009A46934670B491E8380007C831EA400C4B
:1011E00048BF34EA430C03D5FFF7E6FDFFF780FF65
:1011F000F0BCBDE8008C2DE9804C9A46934670B453
:1012000091E8380007C810F0804F08BF13F0804FF6
:1012100003D100F005F8FFF76BFFF0BCBDE8008CD0
:1012200020F07F4780EA030023F07F4C07EB0C039C
:10123000A3F57C5300F00040A3F1FE0392F0000FF1
:1012400000F0B38095F0000F00F077802DE90149A0
:101250004FEA11404FEA144621EA004800FB06FC21
:1012600024EA064708FB06F607FB08F800FB07F729
:1012700018EB06484CEB164C4FEA124B18EB07489C
:101280004FEA15464CEB174022EA0B4E0BFB06FCCF
:1012900025EA06470EFB06F607FB0EFE0BFB07F7DB
:1012A0001EEB064E4CEB164C4FF000061EEB074EA5
:1012B0004CEB174B18EB0B0840F1000018EB0E0B32
:1012C00058EB000840F100008F1A4FF000013CBFBE
:1012D000C943661B14BFB5EB040C00213CBFC943D6
:1012E000F61B4FEA17444EEA8E0E27EA04454FEAF2
:1012F0001C4704FB07622CEA074C05FB07F70CFBB5
:1013000005F604FB0CFC16EB074642EB174216EB06
:101310000C4642EB1C421BEB060658EB0202414115
:1013200046EA9E0601D5BDE80189B619524141EB56
:101330000101A3F10103BDE801894FEA14454FEA19
:10134000114724EA054621EA074C05FB07F406FB92
:1013500007F70CFB06F105FB0CFC11EB074144EB16
:1013600017444FEA124711EB0C4144EB1C4422EAAC
:10137000074C05FB07F206FB07F70CFB06F605FB1F
:101380000CFC16EB074642EB174216EB0C4642EB01
:101390001C456A1854F1000148BF7047B619524104
:1013A00041EB0101A3F10103704795F0000F37D025
:1013B0004FEA11424FEA144721EA024624EA074C59
:1013C00002FB07F106FB07F70CFB06F402FB0CFC23
:1013D00014EB074441EB17414FEA154714EB0C445B
:1013E00041EB1C4125EA074C02FB07F506FB07F71A
:1013F0000CFB06F602FB0CFC16EB074645EB17450B
:1014000016EB0C4645EB1C42121951F1000148BF86
:101410007047B619524141EB0101A3F10103704736
:101420004FEA14454FEA114724EA054621EA074CE2
:1014300005FB07F106FB07F70CFB06F24FF0000671
:1014400005FB0CFC12EB074241EB174112EB0C427F
:1014500051EB1C4148BF7047921841EB0101A3F1C9
:10146000010370472DE9F043244D4FF00009484631
:10147000AB88AC8E4946A3EB040C214B214C0A46A9
:101480001E7806EB4607761C24F817C0B5F806C090
:10149000B5F8368004EB4707ACEB080CA7F802C0A0
:1014A000B5F808C02D8FF6B2ACEB0505BD801E70F7
:1014B00058705D7805EB45076D1C34F917C004EBD7
:1014C00047076044B7F902C0B7F90470EDB2614450
:1014D0003A445D70142DECD3142490FBF4F50848C5
:1014E00091FBF4F13030142E0580418092FBF4F131
:1014F000818001D183F80090BDE8F0839000002046
:1015000058000020100A002000210F4A084600BFA2
:1015100001EB4103491C22F8130002EB4303142999
:1015200058809880F4DB09494FF07E52C1E90420CD
:101530008861C1E9070248628862C862024978315D
:101540000860486088607047100A0020580000203A
:1015500030B55B49012487B00A784B78B2FBF3F0D1
:1015600003FB102557485B1E9D4200D1C4708B7849
:10157000B2FBF3F503FB15255B1E9D4200D1847081
:10158000CB78B2FBF3F503FB15255B1E9D4200D122
:10159000C4720B79B2FBF3F503FB15255B1E9D426C
:1015A00000D144734B79B2FBF3F503FB15255B1EA9
:1015B0009D4200D184738B79B2FBF3F503FB1525B3
:1015C0005B1E9D4200D14470CB79B2FBF3F503FB67
:1015D0001525DB1E9D4202D1437C5B1C4374521CCB
:1015E0000A70427800214FF4C8734AB141700091EB
:1015F00064224FF49671042000F0FEF907B030BD6C
:10160000827842B181703048CDE9004107C8642337
:1016100000F092F9F2E7C278B2B1C1702B480291A2
:10162000039104910591B0F90E20B0F90C10CDE9A9
:101630000012B0F90A30B0F90820B0F90610B0F97C
:10164000040000F00FF9D9E7C27A0AB1C172D5E7F8
:10165000427B82B141734FF448744FF42F724FF4C0
:1016600016714FF4FA708DE817001E2214210A201B
:1016700000F080F8C2E7827B42B1817307B04FF47B
:10168000E471BDE830407B2000F0C0B842790AB177
:101690004171B3E782790AB18171AFE7C2790AB1CA
:1016A000C171ABE7427C022AA8D14174084800907E
:1016B000084B094A1421032000F010F89EE70000AF
:1016C00039000020CC090020880A0020900000206A
:1016D0000000344280AE9315E0F3BB47F8B5234CCD
:1016E000AA27DDF818C0277067700427A77020713B
:1016F000617100929DF80300A0719DF80200E071F5
:101700009DF8010020729DF80000607200939DF822
:101710000300A0729DF80200E0729DF801002073A2
:101720009DF800000026607335461149604603F0BD
:1017300037FA03F001FAADF800009DF80100A0733C
:101740009DF80000E07310210C20E0702046425DFF
:101750006D1C3244EDB2D6B28D42F8D34654BDE88A
:10176000F8400248491C01F0FBBD0000DE090020E2
:101770000000C8423FB42448AA21002301704170F0
:10178000062181709DF8011001719DF800104171D2
:101790009DF8051081719DF80410C1719DF8091024
:1017A00001729DF8081041729DF80D1081729DF82C
:1017B0000C10C1729DF8191001739DF81810417337
:1017C0009DF81D1081739DF81C10C1739DF82110A8
:1017D00001749DF8201041749DF8251081749DF8C6
:1017E0002410C174142110241A46C470845C521C45
:1017F0002344D2B2DBB28A42F8D3435404B0024845
:1018000030BC491C01F0ACBDDE09002078B4144A9C
:10181000AA2500241570557005259570ADF80000B7
:101820009DF8010010719DF800005071ADF8001096
:101830009DF80100907104259DF80000D0712346A9
:101840000821D570D05C5B1C2044DBB2C4B28B4253
:10185000F8D3545478BC0248491C01F081BD000003
:10186000DE0900202DE9F84F0AACAA2794E8001FF2
:10187000304C00263546277067700227A770ADF8F8
:1018800000009DF8010020719DF800006071ADF826
:1018900000109DF80100A0719DF80000E071ADF806
:1018A00000209DF8010020729DF800006072ADF8E4
:1018B00000309DF80100A0729DF80000E072ADF8C4
:1018C00000809DF8010020739DF800006073ADF862
:1018D00000909DF80100A0739DF80000E073ADF842
:1018E00000A09DF8010020749DF800006074ADF820
:1018F00000B09DF80100A0749DF80000E074ADF800
:1019000000C09DF8010020759DF80000607516214B
:101910001220E0702046425D6D1C3244EDB2D6B21A
:101920008D42F8D34654BDE8F84F0248491C01F0F7
:1019300017BD0000DE0900202DE9FC5F2C4CDDE91D
:101940000C898A46AA210193217061700121294FD7
:101950000026A17093463546394603F021F903F07D
:10196000EBF8ADF800009DF8010020719DF8000033
:1019700060713946504603F013F903F0DDF8ADF815
:1019800000009DF80100A0719DF80000E07139464B
:10199000584603F005F903F0CFF8ADF800009DF8C4
:1019A000010020729DF8000060729DF80700A0728F
:1019B0009DF80600E0729DF8050020739DF8040074
:1019C000607384F80E80102184F80F900C20E07072
:1019D0002046425D6D1C3244EDB2D6B28D42F8D342
:1019E0004654BDE8FC5F0248491C01F0B9BC000048
:1019F000DE0900200000C8423FB4184AAA21002492
:101A000011705170947010719DF8050050719DF81F
:101A1000040090719DF80900D0719DF808001072C3
:101A20009DF80D1051729DF80C1091729DF81910CF
:101A3000D1729DF818100920117323460D21D07022
:101A4000D05C5B1C2044DBB2C4B28B42F8D354544C
:101A500004B0024830BC491C01F082BCDE09002001
:101A6000FEE70000164810B50078642819D004DCA1
:101A7000612813D0622817D104E067280BD06C28A6
:101A800012D115E00FA0FEF7D5FB052002F0BCF83F
:101A900001F016FA08E000F09BFD05E000F04CFCB8
:101AA00002E00D4805E001700C490020088010BDDF
:101AB0000B48017809B10021F5E70121F3E70000A7
:101AC000040100200D0A53797374656D205265621C
:101AD0006F6F740D0A0000004400002030000020E9
:101AE0004500002070470120AFF3008001490860E5
:101AF000704700001404014030B51A498379026828
:101B000053B30B6893430B600A1D13680468A34327
:101B1000136002790A441368046823431360114A6E
:101B2000083213680468A3431360131D1C6805681A
:101B3000AC431C604479102C05D021440A6800682D
:101B400002430A6030BD11680468214311601968BE
:101B500000680143196030BD007908440168914371
:101B6000016030BD0004014070B505464FF43026D9
:101B7000304600F059F8042811D1094C206940F092
:101B8000020020616561206940F04000206130461C
:101B900000F04AF8216941F6FD721140216170BDE3
:101BA0000020024008490420CA68D20701D0012061
:101BB0007047CA68520701D502207047C968C90634
:101BC000FBD5032070470000002002400248016955
:101BD00041F080010161704700200240F0B50646E7
:101BE0004FF400570D46384600F01EF804280CD17B
:101BF000064C206940F0010020613580384600F035
:101C000013F82169BA1E11402161F0BD0020024085
:101C10000348024941600349416070472301674519
:101C200000200240AB89EFCD00B50346FFF7BAFFB5
:101C300003E000BFFFF7B6FF5B1E012803D0002BB7
:101C400000D1052000BD002BF4D1FAE710B58A07BA
:101C500021F003040649130F21440F228C689A4097
:101C600094438C608A68984002438A6010BD0000EB
:101C700000000140F0B5CA78002502F00F03D2063B
:101C800001D58A7813430A784FF00F0E12F0FF0F38
:101C90004FF001021CD004680F8802FA05F63740A5
:101CA000B74211D14FEA850C0EFA0CF724EA070768
:101CB00003FA0CF43C43CF78282F02D0482F02D0EF
:101CC00002E0466100E006616D1C082DE4D304606B
:101CD0000C88FF2C1ED944685FF0000606F1080747
:101CE00002FA07F50F882F40AF420FD14FEA860C5A
:101CF0000EFA0CF7BC4303FA0CF73C43CF78282FBD
:101D000000D14561CF78482F00D10561761C082E9F
:101D1000E4D34460F0BD01617047000010B50622B5
:101D200009490A4801F046F80748094902888A86A5
:101D30004288CA8682880A87C2884A8702898A8737
:101D40004089C88710BD0000940A002000E80308FD
:101D500090000020FEE700002DE9F04FFE4C9BB004
:101D6000B4F90A00B4F93A10401A02F001FFFB4D31
:101D7000294602F015FF0090B4F90C00B4F93C10AC
:101D8000401A02F0F5FE294602F00AFF0290B4F96B
:101D90000E00B4F93E10401A02F0EAFE294602F0A5
:101DA000FFFEEF4C0190B4F9000002F0E1FE069056
:101DB000B4F9020002F0DCFE0590B4F9040002F070
:101DC000D7FE303C049021690D46284602F0E8FE1B
:101DD0001490616928460E4602F0E2FE0F90A16958
:101DE00028460F4602F0DCFE31461390084602F00A
:101DF000D7FE0D90E16930460D4602F0D1FE39461E
:101E00001290084602F0CCFE09902946384602F0AE
:101E1000C7FE29461190084602F0C2FE0B90216AC7
:101E20008846404602F0BCFE1690616A0D46284680
:101E300002F0B6FEA16A82460846079102F0B0FEA3
:101E40001090E16A0391084602F0AAFE0E9028461F
:101E5000079902F0A5FE19904046039902F0A0FEF2
:101E60001A900199039802F09BFE07460299079881
:101E700002F096FE064685F00040009902F090FEC2
:101E8000314602F059FF394602F056FFDFF8D4B26E
:101E90005F46594602F084FE414602F023FD0646A5
:101EA0002062DDE9021002F07BFE8146019907986D
:101EB00002F076FE80463046009902F071FE4146FF
:101EC00002F010FD494602F037FF394602F068FE85
:101ED000294602F007FD606205460099039802F06A
:101EE0005FFE80462846019902F05AFE8146304640
:101EF000029902F055FE494602F01EFF414602F0EB
:101F0000F1FC394602F04CFE079902F0EBFCA062AE
:101F1000009902F045FE80462846029902F040FEF4
:101F200005463046019902F03BFE294602F0DAFCF4
:101F3000414602F001FF394602F032FE039902F0F9
:101F4000D1FCE0625146169802F0CCFC109902F0E8
:101F5000C9FC0E9902F0C6FC02F098FC01F000FFEB
:101F600001F03AFF05460146206A02F023FD206297
:101F70002946606A02F01EFD60622946A06A02F0EE
:101F800019FDA0622946E06A02F014FDE062DDE975
:101F9000051002F005FE049902F002FE10F0FF4F5A
:101FA0007ED00499084602F0FBFD059906460846D6
:101FB00002F0F6FD06990546084602F0F1FD2946B5
:101FC00002F090FC314602F08DFC02F05FFC01F063
:101FD000C7FE01F001FF05460146069802F0EAFC43
:101FE00006902946059802F0E5FC814629460498AA
:101FF00002F0E0FC0490DDE9120102F09DFE0121F7
:1020000002F071FF074611990F9802F06BFC012155
:1020100002F069FF06460D99149802F08DFE0999A9
:1020200002F08AFE0B9902F05DFC054631460498E9
:1020300002F0B6FD80462946484602F0B1FD414611
:1020400002F07AFE82462946069802F0A9FD05466E
:102050003946049802F0A4FD294602F06DFE804640
:102060003946484602F09CFD05463146069802F086
:1020700097FD294602F060FE3B4E814631465046B0
:1020800002F08EFD616802F02DFC0746606031466B
:10209000404602F085FDA16802F024FC054600E000
:1020A00043E1A0603146484602F07AFDE16802F063
:1020B00019FC0646E0600121504602F014FF009929
:1020C00002F010FC394602F00DFC074601214046A3
:1020D00002F009FF029902F005FC294602F002FC19
:1020E00005460121484602F0FEFE019902F0FAFB86
:1020F000314602F0F7FB06460146E069049002F023
:102100004FFD8246A0692946059002F049FD8146AF
:1021100060693946804680F0004002F041FD494642
:1021200002F00AFE514602F007FE594602F038FD61
:10213000216902F0D7FB814620612946049802F00C
:102140002FFD07903146059802F02AFD8246394658
:10215000484602F025FD09E0900000202E9E8B3AB3
:10216000880000206F12033A0AD7A33B514602F0C1
:10217000B9FB079902F0E0FD594602F011FD414616
:1021800002F0B0FB804660613946049802F008FD19
:1021900082463146404602F003FD0A9029464846F1
:1021A00002F0FEFC0A9902F0C7FD514602F09AFBCC
:1021B000594602F0F5FC059902F094FB3946A061FE
:1021C00002F0EEFC07462946404602F0E9FC0546CF
:1021D0003146484602F0E4FC294602F083FB3946CA
:1021E00002F0AAFD594602F0DBFC049902F07AFBEA
:1021F000E0610D99149802F075FB099902F072FBE9
:102200000B9902F06FFB02F041FB01F0A9FD01F018
:10221000E3FD05460146206902F0CCFB206129461A
:10222000606902F0C7FB60612946A06902F0C2FB49
:10223000A0612946E06902F0BDFBE0610121099837
:1022400002F051FE04464FF0404529460D9802F039
:10225000A7FC214602F070FD4FF07E56314602F099
:1022600041FB02F013FB04460F4601210F9802F0D8
:102270003AFE80460121119802F035FE414602F0F7
:1022800031FB02F003FB22463B4601F0DFFBDFF8A7
:10229000A0806F083A46434602F01EF801F09CFD0C
:1022A000244C01212060139802F01DFE814629462E
:1022B000129802F075FC494602F014FB02F0E6FAAF
:1022C00001F07CF93A46434602F006F801F084FD3D
:1022D000606001210E9802F006FE814629461098A2
:1022E00002F05EFC494602F027FD314602F0FAFAA0
:1022F00002F0CCFA05460E4601211A9802F0F3FDD1
:1023000081460121199802F0EEFD494602F0EAFAF1
:1023100002F0BCFA2A46334601F098FB3A4643469F
:1023200001F0DAFF01F058FDA0601BB0BDE8F08FAE
:1023300066A64C40880A00202DE9F84F002164244D
:102340008A468B460F4688460D460E466AA0FDF724
:1023500071FF70A0FDF76EFF4FF47A79484601F0E7
:1023600053FC484601F050FC484601F04DFC4846FD
:1023700001F04AFC6BA0FDF75DFF6D4901F108001B
:102380008946009016E000BF09F10601881E009AF8
:1023900000F0E6F9B9F9040001F087FF52465B4608
:1023A00001F04CFD82468B4662A0FDF743FF0520FD
:1023B00001F02AFC641EE4B2E6D25FA0FDF73AFF0A
:1023C0004FF47A74204601F01FFC204601F01CFCFB
:1023D000204601F019FC204601F016FC51A0FDF743
:1023E00029FF632409F10601881E009A00F0B8F95C
:1023F000B9F9060001F059FF3A46434601F01EFDC7
:102400000746884650A0FDF715FF052001F0FCFBAC
:10241000641EE4B2E6D24DA0FDF70CFF4FF47A74CF
:10242000204601F0F1FB204601F0EEFB204601F0D2
:10243000EBFB204601F0E8FB3AA0FDF7FBFE63242E
:1024400009F10601881E009A00F08AF9B9F908001E
:1024500001F02BFF2A46334601F0F0FC05460E46FC
:102460003EA0FDF7E7FE052001F0CEFB641EE4B2BE
:10247000E6D200223A4B5046594601F08FFD01F05A
:10248000E5FEA0F58050A9F834004C460022344BFC
:102490003846414601F082FD01F0D8FEA0F580509B
:1024A000E08600222E4B2846314601F077FD01F0F0
:1024B000CDFEA0F5805020872AA0FDF7BBFEB4F921
:1024C00034102FA0FDF7B6FEB4F9361032A0FDF798
:1024D000B1FEB4F9381036A0FDF7ACFE3A48A18E33
:1024E00006220180E18E4180218F8180BDE8F84F76
:1024F0000146364800F06CBC0D0A537461727420BA
:102500004765744F66667365742D2D2D2D3E4163AE
:10251000630D0A000D0A0D0A537461727420580D80
:102520000A0D0A00646F6E74206D6F76650D0A00E7
:1025300090000020580000000D0A0D0A53746172CB
:102540007420590D0A0D0A00590000000D0A0D0AE9
:102550005374617274205A0D0A0D0A005A0000006B
:10256000000059400D0A456E64204765744F666649
:102570007365742D2D2D2D3E4163630D0A000000FF
:102580004163635F4F66667365742E78202D2D3E20
:102590002025640D0A0000004163635F4F66667387
:1025A00065742E79202D2D3E2025640D0A00000033
:1025B0004163635F4F66667365742E7A202D2D3EEE
:1025C0002025640D0A000000940A002000E803089A
:1025D0002DE9F05F0020044680468146824605468C
:1025E0000646642738A0FDF725FEDFF8FCB029E099
:1025F0003D4A0E32911E881E00F0CBF8BBF90A004E
:1026000001F053FE4246234601F018FC80460C467A
:10261000BBF90C0001F049FE4A46534601F00EFC9E
:1026200081468A46BBF90E0001F03FFE2A4633463A
:1026300001F004FC05460E462CA0FDF7FBFD05202D
:1026400001F0E2FA7F1EFFB2D2D2294F00223B46B0
:102650004046214601F0A2FC01F0F8FDABF83A003B
:102660005C4600223B464846514601F097FC01F08B
:10267000EDFDA08700223B462846314601F08EFC46
:1026800001F0E4FDE0871BA0FDF7D4FDB4F93A109A
:102690001FA0FDF7CFFDB4F93C1023A0FDF7CAFD44
:1026A000B4F93E1026A0FDF7C5FD2B48618F062228
:1026B000C180A18F0181E18F4181BDE8F05F0146BA
:1026C000264800F085BB00000D0A53746172742027
:1026D0004765744F66667365742D2D2D2D3E6779A1
:1026E000726F0D0A00000000900000202E00000014
:1026F000000059400D0A456E64204765744F6666B8
:102700007365742D2D2D2D3E6779726F0D0A0000B3
:102710004779726F5F4F66667365742E78202D2D32
:102720003E2025640D0A00004779726F5F4F666690
:102730007365742E79202D2D3E2025640D0A00002E
:102740004779726F5F4F66667365742E7A202D2D00
:102750003E2025640D0A0000940A002000E80308CA
:102760007CB514460D4606466B4606223B21682082
:1027700000F0DEF900280BD1BDF8001049BA318015
:10278000BDF8021049BA2980BDF8041049BA218069
:102790007CBD7CB514460D4606466B460622432199
:1027A000682000F0C5F900280BD1BDF8001049BA27
:1027B0003180BDF8021049BA2980BDF8041049BA29
:1027C00021807CBD0C4800B50022C0F8A8210B492F
:1027D0000B6823F470430B600B6843F440530B60A9
:1027E000C0F8AC2100F00CF80121C0F8A81100F0ED
:1027F00007F8C0F8A82100BD00802142040C014068
:1028000000BF00BF00BF00BF00BF00BF7047000097
:1028100038B50121082000F079FA4FF44064ADF892
:10282000004010208DF803000320064D8DF80200B3
:1028300069462846FFF71EFA21462846FFF76BFA3D
:1028400038BD0000000C01400C4800B50022C0F863
:10285000A8210B490B6823F470430B600B6843F409
:1028600040530B600121C0F8AC11FFF7C9FFC0F85D
:10287000A811FFF7C5FFC0F8A82100BD00802142C4
:10288000040C014070B5024614480024016821F48C
:1028900070410160016841F4004101601049204627
:1028A00023460125C1F8A831FFF7AAFFC1F8A851B6
:1028B0006406D1F82C61240E0EB1641CE4B2FFF75B
:1028C0009FFF401CC0B20828ECD31AB1FFF77AFF73
:1028D000204670BDFFF7B8FFFAE70000040C014086
:1028E0000080214230B510490A6822F470420A6023
:1028F0000A6842F440520A600C490023C1F8A8312A
:102900001A460124C509C1F8AC514006000EC1F8B1
:10291000A841FFF775FFC1F8A831FFF771FF521CFE
:10292000D2B2082AEED330BD040C0140008021420F
:102930000C4800B5016821F470410160016841F460
:102940004051016008480121C0F8AC11C0F8A8113D
:10295000FFF756FF0021C0F8AC11FFF751FFC0F898
:10296000A81100BD040C0140008021420D4800B5B3
:10297000016821F470410160016841F44051016037
:1029800009480021C0F8A811C0F8AC11FFF738FFC2
:102990000121C0F8A811C0F8AC115DF804EBFFF7F5
:1029A0002FBF0000040C014000802142134800B5F5
:1029B0000268002122F470420260026842F4004280
:1029C00002600F480122C0F8AC21FFF719FFC0F8E0
:1029D000A821FFF715FF07E0491CC9B2FA2903D95E
:1029E000FFF7C4FF012000BDD0F82C21002AF3D14D
:1029F0000021C0F8A811084600BD0000040C0140E9
:102A0000008021421FB5FFF703FF0121084600F0B7
:102A10007DF90121082000F079F90124ADF80C407E
:102A200004208DF80F0003A92D48FFF723F900219A
:102A30000120FFF70BF900208DF8040008208DF825
:102A4000050000948DF806406846FFF755F806200B
:102A50008DF808008DF80B408DF809408DF80A407C
:102A600002A800F0F5F880216B2000F0D0F83220A9
:102A700001F0CAF800216B2000F0C9F8032000F033
:102A800092F8022000F08AF80021382000F0BFF808
:102A900000216A2000F0BBF8FF21232000F0B7F8E6
:102AA0008021372000F0B3F8752000F023F80446A9
:102AB00001460CA0FDF7BEFB682C02D0012004B03B
:102AC00010BD01216B2000F0A2F800216C2000F065
:102AD0009EF84FF47A7000F083F80020EFE70000D2
:102AE000000C01400D0A7265733A20307825580DAC
:102AF0000A00000010B50446FFF71AFFD020FFF7C8
:102B0000F1FEFFF753FF2046FFF7ECFEFFF74EFF05
:102B1000FFF70EFFD120FFF7E5FEFFF747FF00208C
:102B2000FFF7B0FE0446FFF721FF204610BD00006E
:102B30002DE9F0411D4614460F460646FFF7F8FE04
:102B40007006000EFFF7CEFEFFF730FF20B1FFF753
:102B50000DFF0120BDE8F0813846FFF7C3FEFFF707
:102B600025FFFFF7E5FE012000EB4600C0B2FFF7AE
:102B7000B9FEFFF71BFF09E0012C0DD05FF001004B
:102B8000FFF780FE641E05F8010BE4B2002CF3D1C0
:102B9000FFF7ECFE0020DDE70020F1E7C006010EA4
:102BA0001C2000F034B8C006010E1B2000F02FB826
:102BB000BC2801D3012110E0622801D302210CE0DE
:102BC0002A2801D3032108E0142801D3042104E0BA
:102BD0000A2801D3052100E006211A2000F017B8C9
:102BE00010B504464FF47A70844201D9044602E0DD
:102BF000042C00D20424B0FBF4F0401EC1B2192012
:102C000000F005F86008BDE81040FFF7D1BF70B5CF
:102C10000C460546FFF78CFED020FFF763FEFFF75A
:102C2000C5FE50B92846FFF75DFEFFF7BFFE204600
:102C3000FFF758FEFFF7BAFE18B1FFF797FE012025
:102C400070BDFFF793FE002070BDFEE770470000E7
:102C500070B50F23C47801780122F4B1144C2468B4
:102C6000457804F4E064C4F5E064240AC4F1040681
:102C7000E3408478B5401C402C4301F1E02123015E
:102C800081F80034007800F01F018A40400980007C
:102C900000F1E020C0F8002170BD01F01F0082406B
:102CA0004809800000F1E020C0F8802170BD0000DC
:102CB0000CED00E00249084302490860704700003B
:102CC0000000FA050CED00E070470000084A10B55E
:102CD000A2F10800811D001DFFF742FD044A921D6C
:102CE000911E881EFFF755FDBDE81040FEF7BABBE8
:102CF00098000020044A0029D16901D0014300E076
:102D00008143D1617047000000100240044A00294D
:102D1000916901D0014300E0814391617047000057
:102D20000010024030B51F494A6812F00C031E4AD9
:102D300003D0042B01D0082B21D002604A680F2356
:102D40001A4C03EA1212A35C0268DA4042604B6834
:102D5000072505EA1323E35C22FA03F383604B683B
:102D600005EAD323E35CDA40C2604968032303EA3F
:102D70009131231F595CB2FBF1F1016130BD4A680A
:102D80004B6802F470124FF0020413F4803F04EB1E
:102D9000924202D04B689B0301D5054B00E0024BE9
:102DA0005A43CAE70010024000127A0020000020B7
:102DB00000093D0010B5002306E000BF30F8024BCB
:102DC00021F813405B1C9BB29342F7D310BD000067
:102DD0002DE9F05FA0F1006415468A468346B4F5FC
:102DE000802F52D2FEF714FFE70AC4F34906C6F556
:102DF0008064A54200D82C46DFF894904FF0006024
:102E000000EBC72080464FF480622149FFF7D2FFD4
:102E100000204FF6FF7106E0331839F813208A427C
:102E200003D1401C80B2A042F6D3A04225D2404636
:102E3000FEF79AFE0020494607E000BF3AF810204E
:102E40008319401C21F8132080B2A042F6D3104908
:102E500040464FF4806200BF00F01CF8A54210D03D
:102E6000281B0AEB440AA344002685B24FF4806471
:102E70007F1CA542C2D82C46C0E722465146584680
:102E8000EAE7BDE8F05FFEF7A1BEBDE8F09F0000F5
:102E9000CC0100202DE9F04116460F4605460024DE
:102EA00008E000BF37F814102846FEF797FE641CB0
:102EB000A4B2AD1CB442F5D3BDE8F0817047000068
:102EC000012080F3138805480168054A01F4E06198
:102ED00011430160BFF34F8FFEE700000CED00E0EF
:102EE0000400FA050CB50021264801910091026802
:102EF00042F4803202604FF4A063026802F40032B0
:102F00000092019A521C0192009A12B9019A9A42B7
:102F1000F3D10268920333D5012100911A490A685E
:102F200042F010020A600A6822F003020A600A688E
:102F300042F002020A6041684160416841604168B4
:102F400041F480614160416821F47C114160416835
:102F500041F4E8114160016841F08071016001684D
:102F60008901FCD5416821F003014160416841F0CD
:102F7000020141604168C1F381010229FAD10CBD0F
:102F800000910CBD00100240002002404FF0E021F3
:102F90000428086903D020F004000861704740F05D
:102FA0000400FAE70F4810B5016841F00101016023
:102FB00041680D4A1140416001680C4A11400160AE
:102FC000016821F480210160416821F4FE01416023
:102FD0004FF41F018160FFF785FF05494FF0006046
:102FE000086010BD001002400000FFF8FFFFF6FE71
:102FF00008ED00E010B5074C0121204600F04BF829
:10300000002806D00121204600F038F802490120AE
:10301000087010BD00040040380000207FB50C4649
:10302000054601210220FFF765FEADF80450ADF81A
:1030300000400024104DADF80640ADF8024069464E
:10304000284600F03DF801221146284600F02FF8EE
:103050001D208DF80C008DF80D4003208DF80E001A
:1030600001208DF80F0003A8FFF7F2FD012128468B
:1030700000F007F87FBD000000040040C943018252
:1030800070470029018802D041F0010101E021F0E0
:1030900001010180704702460020138A92890B4289
:1030A00002EA010202D0002A00D001207047002A63
:1030B000828901D00A4300E08A4382817047000080
:1030C00030B502881B4B1C4C98420DD0A0420BD04F
:1030D000B0F1804F08D0194DA84205D0184DA84234
:1030E00002D0184DA84203D122F070054A882A4325
:1030F000154DA84206D0154DA84203D022F44075C4
:10310000CA882A4302808A8882850A880285984272
:103110000AD0A04208D00E4A904205D00D4A9042F3
:1031200002D00D4A904201D1097A018601218182A3
:1031300030BD0000002C014000340140000400407C
:1031400000080040000C0040001000400014004047
:103150000040014000440140004801402DE9FF5F6C
:103160002B480078002850D02A4C00256088401C4D
:1031700080B26080A188491CA180E188491CE1805F
:103180002189491C21816189491C6181A189491CCE
:10319000A181012808D16580FFF798FDFEF7DCFDCD
:1031A000207808B1FEF7D4F9A088022800D1A580C4
:1031B000E088052800D1E58020890A281CD12581D6
:1031C0006078C8B12069144F401C83462061B868FC
:1031D00001F05CFB81468A46786801F057FB0646A1
:1031E0008846386801F052FB8DE840070B460246DE
:1031F00059460AA0FDF71EF860890A2800D16581AA
:10320000A089B0F57A7F00D1A581BDE8FF9F0000BD
:103210000000002044000020880A00202535642C8E
:10322000252D352E32662C252D352E32662C252D5A
:10323000352E32660D0A000070B5174C40F225514C
:10324000204600F0A3F800280ED0204600F02CF90C
:10325000C2B2124801880B0406D44C044FF000039C
:103260000AD50A2A01D0038070BD41F400410180D3
:10327000BDE87040FEF7F6BB0D2A09D0C1F30D047E
:10328000074D491C89B22A550180C729EBD870BD6A
:1032900041F48041018070BD004C004030000020AE
:1032A0000401002070B5054686B001211020FFF70B
:1032B0002DFD0121C804FFF71DFD4FF48060ADF81E
:1032C000100018208DF813001E4E03248DF81240B4
:1032D00004A93046FEF7CEFCF014ADF8100028200B
:1032E0008DF8130004A93046FEF7C4FC00200095B9
:1032F000ADF80800ADF804000C21134DADF8060040
:10330000ADF80A10ADF80C006946284600F076F8D2
:1033100034208DF814008DF815408DF816400120EA
:103320008DF8170005A8FFF793FC012240F2255104
:10333000284600F04AF80121284600F01DF806B0A2
:1033400070BD000000100140004C004003490A8895
:103350005206FCD50149091D08807047004C004009
:1033600030B50C460546002303E0E85CFFF7EEFFAE
:103370005B1CA342F9D330BD0029818902D041F4FE
:10338000005101E021F400518181704730B501F016
:103390001F0201240025C1F3421304FA02F2012B9B
:1033A0000FD0022B0FD0838A4FEA112100881342DD
:1033B00004FA01F400EA040001D000B10125284616
:1033C00030BD8389F0E7038AEEE710B5C1F34213FD
:1033D00001F01F040121A140012B07D0022B07D0CF
:1033E0001430002A026805D00A4304E00C30F8E7E4
:1033F0001030F6E78A43026010BD000030B5044685
:10340000008A85B00D464CF6FF710840E9880143FB
:103410002182A1894EF6F3100140A8882A89104321
:103420006A890A431043A081A08A4FF6FF410840F1
:10343000A9890143A1826846FFF774FC19488442B8
:1034400001D1039800E00298A189090400EBC001B2
:1034500001EB0010296801D5490000E08900B0FBAC
:10346000F1F06422B0FBF2F109010B096FF01805CD
:103470006B4300EB8300A3891D044FF0320306D594
:1034800003EBC000B0FBF2F000F0070005E003EB37
:103490000010B0FBF2F000F00F000843208105B0EF
:1034A00030BD0000003801408088C0F3080070473C
:1034B000FEE7490050EAC12018BF04204A0D18BF9A
:1034C00040F0010040F2FF72B2EB515F08BF40F0E4
:1034D0000200012808BF052070472DE9F0414F1E6A
:1034E00000EBC7010446D1E9000115461E4637F03E
:1034F00006020DD02A46334600F0EEFE7F1E04EB96
:10350000C703D3E9002300F099FC37F00602F1D19C
:10351000022F25D0042F13D0062F18BFBDE8F0814D
:103520002A46334600F0D8FED4E90A2300F086FC90
:103530002A46334600F0D0FED4E9082300F07EFC92
:103540002A46334600F0C8FED4E9062300F076FC94
:103550002A46334600F0C0FED4E9042300F06EFC96
:103560002A46334600F0B8FED4E9022300F066FC98
:103570002A46334600F0B0FED4E90023BDE8F0410E
:1035800000F05CBC012201F080BC00F057BC0022BE
:1035900013461046114600F001BD0000024A00200B
:1035A000110701F072BC000001FDFFFF30380A284E
:1035B00001D2012070470020704770472DE9F04D7F
:1035C0008D4F21F0004A86B005460C46BA452ADBED
:1035D000AAEB070028430AD08848824501DC1AD1AB
:1035E000CDB106B02846BDE8F04DFFF7CBBF844A09
:1035F000844B284600F070FE07460E46824A834BF5
:103600002846214600F068FE06B03A463346BDE83B
:10361000F04D00F013BC0120FCF74DFF06B0BDE8F3
:10362000F04DFFF7B4BF7A48824542DABAF1795FCC
:103630000BDA2846FFF73DFF042808BFFFF7AEFF6F
:10364000284606B02146BDE8F08D2A460B461046B6
:1036500000F042FE834602466E480E460B460621A7
:103660007844FFF73AFF5A46334600F035FE80466D
:1036700069488A465A46334604217844FFF72DFFAD
:103680005A46334600F028FE00223B4600F0D6FBA7
:1036900002460B464046514600F080FC2A4623462F
:1036A00000F01AFE06B02A462346BDE8F04D00F0B1
:1036B000C5BB284624F0004100223D463B4600F0B1
:1036C00009FF4FF0FF3201F0E0FB06460246534887
:1036D0000F460B4606217844FFF7FFFE32463B4675
:1036E00000F0FAFDCDE900014D4832463B46042189
:1036F0007844FFF7F2FE32463B4600F0EDFD002233
:103700002B4600F09BFB834602913046394600F081
:1037100027FB804643480D46504517DCDDE9000194
:103720005A46029B00F03AFC42462B4600F0D4FD7C
:1037300042462B4600F082FB012201F0A6FB304AF4
:10374000304B00F0B9FF304A304B4CE04FF0000AEC
:1037500052460B46404600F071FBCDE9031052463D
:103760002B461046194600F0B7FD32463B4600F0A6
:10377000B1FEDDE9033200F011FC06460F46DDE93B
:1037800000015A46029B00F009FC83460091012289
:103790003046394601F079FB194A1A4B00F09AFE7F
:1037A00006460F4601224046294601F06EFB5A4666
:1037B000009B00F091FD32463B4600F07DFF06463F
:1037C0000F4601225046294601F05FFB0E4DDFF8FF
:1037D00058802A46434600F07DFE32463B4600F0C4
:1037E00079FE2A46434600F075FE002CD8BF81F0D2
:1037F000004106B0BDE8F08D0000F03F0000F07F12
:10380000075C143326A6913C182D4454FB21F93F44
:103810000000E03F3C19000052190000C6180000EB
:10382000DC1800003333EF3FFB21E93F2DE9F84F6F
:1038300004460D4621F0004000917349814211DC9D
:103840007249884201DC06D12CB120462946BDE8E8
:10385000F84FFFF797BE6E48002DCCBF6D496E49FB
:10386000BDE8F88F6D49814211DD6D498142D8BFB5
:103870004FF0FF366DDD20462946FFF71AFE04287B
:1038800008BFFFF78BFE20462946BDE8F88F654943
:10389000654F25F00045814233DD6449814219DDE1
:1038A000002632464FF080432046294600F0C6FAF3
:1038B00080468A4601222046294601F0E6FA002287
:1038C0003B4600F0F9FE4246534600F067FB0446D3
:1038D0000D463EE001260022BA463B4620462946D8
:1038E00000F0ACFA80460F46002253462046294697
:1038F00000F0E2FE42463B4600F050FB04460D4617
:1039000027E04B4981421BDDDFF828A10226002277
:1039100053462046294600F0DFFC00223B4600F0DB
:103920008DFA80460F46002253462046294600F075
:10393000C3FE42463B4600F031FB04460D4608E01C
:10394000032622462B4600203B4900F027FB044675
:103950000D4622462B461046194600F0BDFC8B460C
:10396000824602460B4600F0B7FC07460246334843
:1039700088460B4606217844FFF7AFFD52465B466A
:1039800000F0AAFC82462E488B463A464346052163
:103990007844FFF7A2FD3A46434600F09DFC0246FC
:1039A0000B46002E504659460CDA00F047FA2246E4
:1039B0002B4600F091FC01B022462B46BDE8F04FAB
:1039C00000F088BD00F03AFA22462B4600F084FC55
:1039D0001C4A7A4402EBC603D3E9002300F06CFED4
:1039E00022462B4600F068FE174A7A4402EBC603D3
:1039F000D3E9002300F06EFD009A002AB8BF81F0E1
:103A00000041BDE8F88F0000000010440000F07F86
:103A1000182D4454FB21F93FFB21F9BF0000DC3F86
:103A20000000203E0000F33F0000F03F0000E63FB2
:103A3000008003400000F83F0000F0BFDE160000E9
:103A40009C1600003A160000021600002DE9F04D09
:103A50009446CCF1000423F000464CEA0404524F93
:103A600046EAD4749A46884621F00042BC4206D801
:103A7000454240EA050442EAD474BC4204D9BDE898
:103A8000F04D6246FFF781BDAAF14055A5F17F6573
:103A900055EA0C040BD0022404EAAA74434DDFF863
:103AA00010E144EAD87452EA000B04D00CE0BDE8FF
:103AB000F04DFFF7BBBE002C14BF012CBDE8F08D0C
:103AC000022C30D0032C32D056EA0C0B0AD0BE4266
:103AD00020D1BA4209D126F0804622F080423346F6
:103AE000114617E000291ADB25E0DFF8C8B0FB44D7
:103AF000002C04BFDBE90001BDE8F08D012C02BF02
:103B0000DBE9000181F00041BDE8F08D022C0AD014
:103B1000032C0CD0BA4212D1B8F1000F0BDA2348B3
:103B20002549BDE8F08D28462449BDE8F08D28469A
:103B30007146BDE8F08D1D482149BDE8F08D921B0E
:103B400012153C2AC4BF19481D490EDCBAF1000FFA
:103B5000BEBF12F13C0F0020014606DB624600F0BA
:103B60001DFA21F00041FFF761FE002C08BFBDE8FF
:103B7000F08D012C04BF81F00041BDE8F08D114AA9
:103B8000114B022C07D000F097FD2A46BDE8F04DFE
:103B90000A4B00F091BD00F08FFD2A46BDE8F04DC4
:103BA000064B00F097BC00000000F07F182D445435
:103BB000FB2109C096150000FB21F9BFFB2109403C
:103BC000FB21F93F075C143326A6A13C10B56FF02A
:103BD0000400FFF7DBF9094809490068B0FBF1F080
:103BE000C1B2084801EB41020170C2EBC1114FF6AE
:103BF000FF7202EAC101418010BD000004000020F4
:103C000000127A00180000200B49498848434FF001
:103C1000E021486100228A61086940F001000861E2
:103C20000869C30701D0C003FAD5086920F0010074
:103C300008618A61704700001800002003490A8863
:103C40005206FCD50149091D08807047004C004010
:103C50000EB5FFF7BBFF4FF4A060FFF72BF81C4D2C
:103C600000241C482C70FFF71DFB472140F2E73071
:103C7000FFF7D4F9FDF748FCFEF7C4FE002824D076
:103C800015A000BFFCF7D6FAFEF748F819A0FCF71C
:103C9000D1FA1B48B0F93410B0F93830B0F93620F9
:103CA0008DE80E00B0F93E30B0F93C20B0F93A1082
:103CB00014A0FCF7BFFA01202870214D28780028B5
:103CC000FCD02C70FFF74AFAF8E71EA0DAE70000F4
:103CD0000000002020A107000D0A4D505536303558
:103CE0003020696E6974206661696C65642E2E2EC1
:103CF0000D0A0000636F6E6669673A200D0A0000C6
:103D0000900000206779726F2D2D2D3E09583A20C2
:103D1000256409593A202564095A3A2025640D0A78
:103D2000416363202D2D2D3E09583A202564095901
:103D30003A202564095A3A2025640D0A0000000043
:103D4000380000200D0A4D50553630353020696E50
:103D5000697420737563636573732E2E2E0D0A00CC
:103D60002DE9F04106460F4600F0C0FB041E0D464B
:103D700018BF0120284320F00040C0F17F6000F10F
:103D8000E040C00F0ED0301C18BF0120384320F097
:103D90000040C0F17F6000F1E040C00F04BF01208F
:103DA000FCF789FB20462946BDE8F08110B50029C3
:103DB0000AD00878002807D005487844FCF74AFF65
:103DC000002801D0002010BD0248784410BD00003A
:103DD0008A1300008213000021F00042A2F1605219
:103DE000B2F5801F01F0004328BFD2F17F6C0BD9E0
:103DF0005FEA001C43EAC20242EB507018BF7047F2
:103E000028BF20F001007047B2F5801FBCBF1846E4
:103E100070474FEA410C1CF5001F02D2084600F023
:103E200086BF70B500F002FB00000089FFF7F6BF07
:103E30004FF00040A0F580007047000010B591EAF7
:103E4000030F48BF83F0004300F13E84841A71EBF6
:103E5000030C05D2121943EB0C03001B61EB0C01A0
:103E6000DFF824E14FEA1154A4EB135C1EEA430F80
:103E700018BF9EEA445F73D023EA0E03DCF1200EE4
:103E800021EA045143F4801332D322FA0CFE10EBE2
:103E90000E0023FA0CFE41EB0E01CCF1200E03FACA
:103EA0000EFE10EB0E0051F10001B1F5801FCCF1B8
:103EB000200E32D201EB045112FA0EF2BDE810408E
:103EC00058BF7047401C38BF5FEA420218BF7047B6
:103ED000002814BF20F0010041F100014FEA410326
:103EE00013F5001F38BF7047A1F1C04100F0ECBAD4
:103EF000012A43EB0302ACF1200CDCF11F0E32BFB0
:103F00004FF0000E23FA0CF310EB030041EB0451C9
:103F1000B4EB115FD0D0A1EB045101F58011490839
:103F20005FEA300001EB04510ED350F1000038BFBE
:103F300012FA0EFE08D1BDE81040C9E7401C38BF98
:103F40005FEA4202CAD1C3E7BDE810404FEA41032D
:103F500013F5001F38BF7047A1F1C04100F0B4BA9B
:103F60009EEA445F08D011EA5E0FBDE8104004BF2E
:103F700001F0004100207047BDE8104070B500F02E
:103F800055FA00BF64FBBE3E0000E0FF02494FF05F
:103F9000000000F048BF00BF0000F87F2DE9C041DD
:103FA00030B4DFF8A0C23CEA111418BF3CEA131485
:103FB00000F0EC8081EA03051CEA111444EAD57490
:103FC00018BF1CEA131500F0C780A4EB05044FF0DE
:103FD000004545EAC12145EAC32341EA505143EA7D
:103FE000525304F17F74994204F500344FEAC02023
:103FF0004FEAC22208BF904200F09C804FEA13654E
:104000000FF24016765D4FEA134506FB05F7C7F140
:10401000807706FB07F74FEAD737A7FB036876429E
:10402000C8F58038A7FB06CE38BFA8F1010807FB0A
:1040300008E64FF0000EA6FB028CE6FB03CEDCF197
:10404000000CCEF1004E38BFAEF1010EA6FB0C58AD
:104050004FF000074FF00005E6FB0E87A1FB08C6F6
:10406000A0FB07CE16EB0E0645F10005E1FB076548
:1040700015F1E04E7EBFA4F580345FEA46066D413F
:1040800016F1800745F100054FEA17274FEA06664B
:1040900047EA0567A6F1DE46B6F1805F4FEA1525CF
:1040A0001FD9384624F0010C05EBC471BCF1FE6F3A
:1040B00001EB0C1102D8F0BCBDE8008124425CBFCA
:1040C00001F5801E9EEAC47F02D4F0BCBDE80081E9
:1040D000244238D4F0BCA1F1C041BDE8004100F059
:1040E000F3B94FEAD22242EA43524FEAD323A7FB65
:1040F00002864FEAD02040EA415007FB03661EEAE1
:104100000E0F4FEAD12105FB026658BFA6EB005601
:10411000B6EB00564FEA520E4EEAC37E18EB0E0E77
:1041200056EB530EBDD518EB02085E417F1C55F1CE
:104130000005B6E74FF480154FF000074FF000067A
:104140004FF00008ADE7F0BC4FF0000001F1C041B6
:1041500001F00041BDE8008111EA0C1F0CEA1315C3
:1041600000D00CE013EA0C1F00F025804FF0000097
:10417000F0BC81EA030101F00041BDE80081F0BC20
:10418000BDE8004181EA030100F09EB9F0BCBDE842
:10419000004170B500F04AF9097EFC3E00F007B816
:1041A00081EA03014FF0000001F00041704781EA0D
:1041B000030100F089B9F0BCBDE800414FF00000F8
:1041C00021497047FFFDFBF9F7F5F4F2F0EEEDEB56
:1041D000E9E8E6E4E3E1E0DEDDDBDAD8D7D5D4D305
:1041E000D1D0CFCDCCCBCAC8C7C6C5C4C2C1C0BF51
:1041F000BEBDBCBBBAB9B8B7B6B5B4B3B2B1B0AF57
:10420000AEADACABAAA9A8A8A7A6A5A4A3A3A2A13A
:10421000A09F9F9E9D9C9C9B9A99999897979695F5
:1042200095949393929191908F8F8E8E8D8C8C8B91
:104230008B8A898988888787868585848483838219
:10424000828181800000FF070000F87F4FEA410370
:104250004FEA5353A3F58063D3F11E03C8BFD3F1D4
:10426000210C0CDD4FF0004242EAC12242EA5052DA
:1042700032FA03FC8CEAE17CACEBE1707047102B66
:10428000C4BF0020704703F5787CBCF1FF3F04D029
:104290006FF0004282EA2100704770B500F0C6F866
:1042A0004992248000207047F2E710F0004248BF96
:1042B0004042B0FA80F310FA03F10AD0C3F11D03B3
:1042C00003F580634FEA415002EB035202EBD12128
:1042D00070474FF000007047DFF848C170B51CEA26
:1042E000111E1EBF1CEA13159EEA0C0F95EA0C0F57
:1042F00000F06F8081EA030423EA4C134EEAD47E77
:1043000021EA4C1141F4801143F48013AE44A1FB27
:10431000024CA0FB0365AEF17F7E361955EB0C0510
:10432000A1FB034C4CF10003A0FB021C16EB0C0696
:10433000654153F10003094218BF46F0010613F42A
:10434000007F0BD14FEA03314FEA0530340341EAD5
:10435000155140EA16506FF003020AE04FEAC321FC
:104360004FEAC520F40241EA555140EA56506FF039
:10437000020202EB2E4201EB025585EACE710AD011
:104380005FEA440C18BF24F0004450F1000041F1F2
:10439000000120EAD47040F2FE7C624500D270BD7C
:1043A000A84214BF4FF080444FF04044002E08BF95
:1043B0000024BEF1806FA8BFA1F1C041BDE87040EC
:1043C00080F282804FF0000001F1C04101F0004115
:1043D00070479EEA0C0F0CEA131518BF95EA0C0FF4
:1043E00006D04FF0000081EA030E0EF0004170BDD0
:1043F00000F01CF88900013E00F007B800F009B891
:104400004FEA430C5FEA5C5C08D081EA030100F0EC
:104410005BB84FEA410C5FEA5C5CF6D14FF00000FC
:10442000014970470000FF070000F87F0EF1020EFF
:104430002EF0030E5EF8046B364205D4012A43EBDE
:10444000030515F5001F12D8012841EB010C1CF5DE
:10445000001F0CD80ED14FEAD17C15F5001F0CEBD4
:104460004C0C0CF1020C08BF4CEBD37C04E04FF079
:10447000080C01E04FEAD37C0CEB4C0526FA05F65C
:1044800006F00706B6F1040C06D20EEB860CBDE86A
:1044900070404CF0010C6047DFE80CF0090B0202A1
:1044A0004FF000414FF00000A1F5002170BD19460A
:1044B0001046012851EB010418BFD4F5001484BF45
:1044C000002001F0004170BD0808A0F500114FEA7E
:1044D0003101704791EA030F10B581F000413FF5BB
:1044E000B5AC83F0004300F0EFB800002DE9F041D7
:1044F00001F5801CBCF5001FC0F2C3804FEA115CBF
:1045000021EA0C510CF1FD0C41F480115FEA5C0CC6
:104510000CF5C07C01D3400049413DA4890241EA29
:10452000905187028E0E0A0CA45D04FB04F602FB78
:1045300006F6C6F14046A4FB0662F60D46EA4226A0
:1045400006FB06F4A4FB01235242C3F1404338BFEB
:104550005B1EA6FB02420024E6FB0324D20B42EAC8
:104560004446A6FB0623A1FB02E2A3FB07E4A41832
:104570004FF0000252F10002E3FB01426442C2F13B
:10458000404E38BFAEF1010EA6FB04234FF00002EF
:10459000E6FB0E32A2FB03464FF00004B61954F1BD
:1045A0000004E2FB0264A1FB06E6A4FB07E816EBAD
:1045B00008064FF0000858F10008E4FB0168764255
:1045C000C8F1405838BFA8F10108A2FB06E4A3FBDC
:1045D00008E52D194FF0000454F10004E2FB0854E3
:1045E000A1FB05E6A7FB04E818EB06084FF0000660
:1045F00056F10006E1FB048618F1200556F100068D
:10460000A809A8F11B08B10908F03F08B8F10A0F82
:1046100040EA86601CD901EB0C51BDE8F08100BF77
:10462000FCF5EEE8E2DDD8D3CFCBC7C3C0BDB9B649
:10463000B4B1AEACA9A7A5A3A19F9D9B9A9896954E
:104640009392908F8D8C8B898887868584838281D5
:10465000A0FB006800FB01F208EB4208B8EB8728DA
:1046600007D5341858EB0104D5D5401C51F1000191
:10467000D1E7341A78EB0104CDD4401E71F100016A
:10468000C9E75FEA4C0C5FEA9C5C0DD105D34FF0A3
:10469000000001F00041BDE8F081BDE8F04170B5D7
:1046A000FFF7C4FE6DDBFFBEBDE8F0414FF0000038
:1046B000004970470000F87F10B591EA030F48BF2A
:1046C00083F000433FF5C2AB841A71EB030C07D2B1
:1046D00012198CF0004C43EB0C03001B61EB0C0136
:1046E000DFF8A4E14FEA1154A4EB135C1EEA430F78
:1046F00018BF9EEA445F00F0B08023EA6E03524286
:1047000021EA0451C3EB6E0338BF5B1EDCF1200EBF
:1047100025D322FA0CFE10EB0E0043FA0CFE41EBFF
:104720000E01CCF1200E03FA0EFE10EB0E0051F13B
:104730000001CCF1200E29D412FA0EF201EB045143
:10474000BDE8104058BF7047401C1CBFB2F1004F7D
:10475000704700280CBF491C20F00100704712EB85
:10476000020E43EB030218BF4FF0010E4EEA420265
:10477000ACF1200CDCF11E0E54D943FA0CFE10EB08
:104780000E0051F1FF31CCF11E0ED5D50EF1010E08
:1047900012FA0EFE404141EB010101EB445C5FEA7D
:1047A0005C5C10D910EBDE7001EB045138BFBEF138
:1047B000004FBDE8104018BF704700280CBF491CCF
:1047C00020F00100704730D24FEAD42C11F50011CF
:1047D00024F400641BD0B1FA81F20B3AA41AA41E8F
:1047E000D2F12003914030FA03F31943904001EBDA
:1047F000CC71002C01EB0451BDE81040A8BF7047FC
:1048000001F1C0414FF0000001F000417047B0FAE3
:1048100080F310FA03F100D110BDE41A173C4805EB
:10482000C90AE4E701EB045110BD491001EB045142
:10483000BDE810404FEA300002E04FF00001704741
:104840004A0008BF0042F8D0B2F5001F28BF7047E9
:1048500001F000414FF0000070479EEA445F07D02E
:1048600011EA5E0FBDE8104004BF00210020704730
:10487000BDE8104070B5FFF7D9FD00BF40DFF63E40
:1048800083F00041104670470000E0FF43004FEA0C
:10489000D30C4FEA3C0C43401FBF40070CF1605162
:1048A00013F0FE4F70471CF0006F03D100200CF096
:1048B000004170470CF0004343EA507010B540EAE5
:1048C000CC0000F0EEF900BF000000924FEA0001BA
:1048D000FFF7FABD4FF000414FF00000A1F50021B5
:1048E0007047000090EA010F48BF81F0004100F1DD
:1048F0002A82421A3CBF801A89184FEAD0524FF0E0
:104900007F4C1CEA410FA2EBD15318BF9CEA026F07
:1049100000F03B804FF0004C4CEA00204CEA0121B3
:1049200021FA03FC10EB0C0C1ED202F1FF325FEAFD
:104930001C2040EBC25038BF70471CF07F0F4FEA7D
:10494000400C18BFBCF17F4F38BF7047C3F1200344
:10495000994008BF20F00100BCF17F4F38BF70477D
:10496000A0F1C04000F0E3B94FEA3C00000A40EB80
:10497000C25028BF1CF0FF0F4FEA400CE6D018BF12
:10498000BCF17F4F38BF7047EAE79CEA026F05D061
:1049900010EA5C0F08BF00F00040704710B500F04F
:1049A00080F900BF64FBBE3E014800F03CBA00BF86
:1049B0000000C07F4FF47F0C1CEAD0121EBF1CEA1F
:1049C000D11392EA0C0F93EA0C0F00F0858090EA65
:1049D000010F48BF42F4807240F4000C41F4000023
:1049E0002CF07F4120F07F4000B58142A2EB030212
:1049F0000FF2081CACEB504EC0F100009EF800E036
:104A00004FEA4E0E00FB0EFC38BF49004FEA2C1C4B
:104A100002F5FA020CFB0EF34FEACE1E4FEA112C00
:104A20004FEAC1210EEB635E42EB22420EFB0CFC0F
:104A30004FEA1C5300FB03114FEA112C4FEA0131DE
:104A40000EFB0CFC4FEADC4C00FB0C11C14228BFF2
:104A500009184CEB03335DF804EB10EB410143EB19
:104A6000C250B2F57C0F38BF704729D512F0F00F55
:104A70001CBF00F1C04000F00040704700818283FD
:104A80008485868788898B8C8D8E8F91929395965D
:104A900097999A9C9D9FA0A2A3A5A7A8AAACAEB0E7
:104AA000B2B3B5B7B9BCBEC0C2C5C7C9CCCED1D4EC
:104AB000D7D9DCDFE2E6E9ECF0F3F7FAFE0000001C
:104AC0004FEA400C0CF1807CBCF17E4F28BF704750
:104AD000B0F1C04000F02BB990EA010F0CEAD113FD
:104AE00048BF42F48072624538BF634507D213F471
:104AF0007F0F16D080EA010000F00040704710B52B
:104B000000F0CFF8097EFC3E00F005B880EA010015
:104B100000F00040704780EA010000F0004000F023
:104B200006B912F47F0F04BF0248704780EA010003
:104B300000F0FDB80000C07F41000B0ED3F19E02D3
:104B400008D950F400034FEA032323FA02F048BFC8
:104B50004042704710B500F0A4F800BF499224808D
:104B6000002070476FF0004282EA2000704700008A
:104B700010F0004148BF4042B0FA80F310FA03F24F
:104B8000C3F19D030BD051EAC35101EB1220530630
:104B900038BF704700F1010008BF20F001007047E6
:104BA0004FF47F0C1CEAD0121EBF1CEAD11392EA0C
:104BB0000C0F93EA0C0F00F0478090EA010F48BFFA
:104BC00042F480724FF0004C4CEA00204CEA012184
:104BD00002EB0302A0FB0113A2F50002002918BF9B
:104BE00043F001035B0028BF4FEA330342EB22424C
:104BF0005FEA132C4CEBC2502EBFBCEB436FB2F5F7
:104C00007C0F70474FEA036CBCF1004F08BF20F0E7
:104C10000100B2F57C0F38BF70470BD582F0FF0260
:104C200012F5803FC8BF704700F1C040D8BF00F008
:104C30000040704700F5000C5FEA4C0C48BF70471D
:104C4000B0F1C04000F073B890EA010F0CEAD11344
:104C500048BF42F48072624538BF634504D280EA9F
:104C6000010000F00040704710B500F01AF800BFD6
:104C70008900013E00F007B800F009B85FEA410C76
:104C80005FEA1C6C08D080EA010000F050B85FEACF
:104C9000400C5FEA1C6CF6D14FF00040A0F580009C
:104CA00070470EF1020E2EF0030E5EF8044B244204
:104CB00004D44FEA4102B2F17F4F11D84FEA4003CA
:104CC000B3F17F4F0CD80ED14FEAD07CB2F17F4FB9
:104CD0000CEB4C0C0CF1020C08BF4CEBD17C04E04B
:104CE0004FF0080C01E04FEAD17C0CEB4C0324FAA6
:104CF00003F404F00704B4F1040C06D20EEB840CA8
:104D0000BDE810404CF0010C6047DFE80CF00708EC
:104D100002024FF00040A0F5800010BD084642009E
:104D200018BFD2F1807288BF00F0004010BDFF2193
:104D300041EAD050C005704790EA010F48BF81F0AA
:104D400000413FF5D6AD421A04D882F00042A0EBF4
:104D5000020011444FEAD0524FF07F4C1CEA410F41
:104D6000A2EBD15318BF9CEA026F4AD04FF0004C1F
:104D70004CEA00204CEA012121FA03FCB0EB0C0CB8
:104D80000FD412F0FE0F36D05FEA4C001DD5001292
:104D900040EBC25038BF70471CF03F0F18BF704740
:104DA0000BE0A2F101025FEA1C2040EBC25038BFC9
:104DB00070471CF07F0F18BF7047C3F12003994064
:104DC00014BF401E20F00100704780084FEA1223F4
:104DD00008BF7047B0FA80FCA2EB0C02CCF1280CA3
:104DE00060FA0CF093EA122F04BF00EBC250704738
:104DF0004FEAC3707047130A5FEADC1008BF7047C0
:104E0000F6E79CEA026F04D010EA5C0F08BF0020AE
:104E1000704710B5FFF745FF40DFF63E81F00040D8
:104E20007047FBF780BC0CF00F03092B08BF08206C
:104E300000F07F800A2B0BD0082B18BF704708BFEB
:104E40001CF0400F0AD04FF000004FF000017047F7
:104E50001CF0400F18BF4FF0004070471CF0100FBF
:104E600008D020F0704300F07F4242EAD3014FEABD
:104E70004370704700F0604021F07F4242EA000238
:104E800001F07F4040EA727070474FF0FF0C4CF425
:104E9000E06C1CEA11531CBF9CEA030C9445C2BF92
:104EA000DA4201EB02517047002B0DD0BCF1000F2C
:104EB0000FD0002A01F00041A4BF41F0E04141F0D1
:104EC0007F614FF00000704701F000414FF000009B
:104ED000704750EA01334FF09B0C18BF4CF0806CC8
:104EE0007FF454A870474FF0FF0212EAD0521CBF63
:104EF00092F0FF038B42C2BFD14200EBC15070471A
:104F0000002A0AD0002B0BD0002900F00040A4BFDB
:104F100040F0FE4040F40000704700F00040704751
:104F200043024FF00B0C18BF4CF0806C7FF43CAD8B
:104F300070471CF4801F11D01CF4E02F03D06FEADF
:104F4000CC31490070474FF04050EFF3008222F01F
:104F5000704242EA000282F3008870474FF000007E
:104F60007047303132333435363738394142434473
:104F700045464030580030313233343536373839D1
:104F800061626364656640307800040000080000D8
:104F900000000000000200010000100000000000FE
:104FA000555555555555C53F7D6FEB0312D6D4BFAA
:104FB0005544880E55C1C93F3B8F68B52882A4BFB0
:104FC00088B20175E0EF493F09F7FD0DE13D023F71
:104FD0004B2D8A1C273A03C0C88A599CE52A0040F9
:104FE00059018D1B6C06E6BF82922EB1C5B8B33F46
:104FF0004FBB610567ACDD3F182D4454FB21E93FF1
:105000009BF681D20B73EF3F182D4454FB21F93FDF
:10501000E2652F227F2B7A3C075C143326A6813C65
:10502000BDCBF07A8807703C075C143326A6913C10
:10503000C4EB98999999C9BF711623FEC671BCBF7C
:105040006D9A74AFF2B0B3BF9AFDDE522DDEADBFE4
:105050002F6C6A2C44B4A2BF0D5555555555D53FFC
:10506000FF8300922449C23F6E204CC5CD45B73F17
:10507000513DD0A0660DB13FEB0D76244B7BA93F8F
:1050800011DA22E33AAD903F00000000000000007A
:1050900002400000000000A00000000005400000E9
:1050A000000000C8000000000C4000000000409C10
:1050B00000000000194000000020BCBE00000000FD
:1050C00034400000BFC91B8E00000004B540000042
:1050D000504BCFD06607E2CF010000006C410000CA
:1050E0003E8251AADFEEA73401000000D942000041
:1050F000DCB5A0E23A301F97FFFFFFFFB445000088
:10510000FD25A0C8E9A3C14FFFFFFFFFFF3F00003F
:105110000000008000000000FF3F00000000008051
:105120000000000060510008000000209000000016
:105130006C010008F0510008900000207010000081
:10514000880100081C00000043000000F8FFFFFF7A
:105150000C0000000E0000000F0000002E000000F8
:105160000000000000A24A0400000000000000004F
:1051700001020304060708090000000002040608F3
:1051800000000000010203040102030406070809ED
:10519000000000000000000000000A0F141432C8D4
:1051A000C800000000000000000000000000000037
:1051B00000000000000000000000000000000000EF
:1051C00000000000000000000000803F0000000020
:1051D00000000000000000000000803F0000000010
:1051E00000000000000000000000000000000000BF
:04000005080001F1FD
:00000001FF
