:020000040800F2
:10000000A8190020FD010008653B0008192C000814
:10001000633B000807280008C94C000800000000E6
:100020000000000000000000000000004541000842
:10003000A9290008000000003D3F00081502000843
:10004000170200081702000817020008170200082C
:100050001702000817020008AB2900081702000861
:10006000170200081702000817020008170200080C
:1000700017020008170200081702000817020008FC
:1000800017020008170200081702000817020008EC
:1000900017020008170200081702000817020008DC
:1000A0001702000889430008170200081702000819
:1000B00017020008D94300081702000817020008B9
:1000C00017020008170200081702000817020008AC
:1000D000170200081702000817020008170200089C
:1000E000170200081702000817020008170200088C
:1000F000FD44000817020008170200081702000854
:1001000017020008170200086144000817020008DF
:10011000214A000817020008170200081702000809
:10012000170200081702000817020008170200084B
:1001300000F002F800F053F80AA090E8000C8244A6
:100140008344AAF10107DA4501D100F048F8AFF283
:10015000090EBAE80F0013F0010F18BFFB1A43F0A5
:1001600001031847706F0000906F0000103A24BF21
:1001700078C878C1FAD8520724BF30C830C144BF0C
:1001800004680C607047000000230024002500264E
:10019000103A28BF78C1FBD8520728BF30C148BFEA
:1001A0000B607047662906F0FD85642900F07C80AD
:1001B000782900F0B580002070471FB500F01EFDC3
:1001C00004000020002105F0A7FC401C6060002016
:1001D000002105F08BFCE0601FBD10B510BD00F0E4
:1001E0009DFE1146FFF7E9FF05F006FB01F046F919
:1001F00003B4FFF7F2FF03BC04F036FF0948804761
:1002000009480047FEE7FEE7FEE7FEE7FEE7FEE7F8
:10021000FEE7FEE7FEE7FEE704480549054A064B10
:10022000704700003943000831010008A81300207E
:10023000A8190020A8150020A8150020704700006C
:100240000FB4044910B503AA029800F00DFC10BCCD
:100250005DF814FB3400002070B504468569006821
:10026000C10601D5302600E02026C00707D070BDAA
:10027000D4E9012130469047206A401C20626D1E5F
:10028000F6D570BD70B5044685690078C00707D102
:1002900070BDD4E9012120209047206A401C2062D3
:1002A0006D1EF6D570BD00002DE9F0410646002414
:1002B00010687529314616A510D0AFF300800028CC
:1002C00002DA404213A507E031688A0701D512A57A
:1002D00002E0490704D511A5012401E0AFF3008035
:1002E00000210A2206F1240709E0B0FBF2FCB0FB72
:1002F000F2F302FB1C00303078541846491C0028E9
:10030000F3D123462A463046BDE8F04100F043B918
:10031000000000002D0000002B0000002000000065
:1003200070B504460D4621461068AFF30080218861
:10033000090502D50F4A7A4402E00E4A7A440E3289
:10034000002104F1240305E000F00F060009965D8A
:100350005E54491C0028F7D120780023000704D5FB
:10036000702D02D009B1022311322046BDE8704041
:1003700000F011B9B66B00002DE9F05F8946044624
:100380004FF0000ADFF824B1FB44C0F820A020465B
:10039000E168884700287DD0252806D0D4E90121CE
:1003A0009047206A401C2062F1E700255F46204606
:1003B000E16888472028064607DB312E05D2B819A8
:1003C00010F8200C08B10543F1E7A80701D525F086
:1003D0000405C4F81CA00027C4F818A02A2E09D0D0
:1003E000304604F03AFE38B304EB8708303EC8F8D4
:1003F000186019E059F8041B204604EB870291614C
:10040000E1688847012F064618D1E069002820DA04
:1004100025F020051DE0D8F8180000EB800006EB61
:1004200040003038C8F818002046E1688847064682
:1004300004F013FE0028EED1012F0AD02E2E08D191
:100440002046E16888477F1C0646022F45F02005BC
:10045000C4DBA069002803DA404245F00105A06131
:10046000E80701D025F01005A6B1A6F14100192832
:1004700002D8203645F400654A46314620462560BC
:100480004D46FFF78FFE60B1012807D0ED1D25F026
:10049000070000E007E000F1080978E705F104092A
:1004A00075E730467AE7206ABDE8F09F8C6B000064
:1004B00070B5064600F060F80468054630460A222A
:1004C000002100F035FB2C6070BD4FF0000200B53C
:1004D000134694469646203922BFA0E80C50A0E867
:1004E0000C50B1F12001BFF4F7AF090728BFA0E815
:1004F0000C5048BF0CC05DF804EB890028BF40F8E1
:10050000042B08BF704748BF20F8022B11F0804F22
:1005100018BF00F8012B704710B5044610F0030F08
:1005200008BF11F0030F40F015804FF0013E121F7D
:10053000C0F20E8051F8043BA3EB0E0C2CEA030C26
:100540001CEACE1C08BF40F8043BF0D0A1F1040126
:1005500002F10402521E08DB11F8013B002B00F8E7
:10056000013BF7D1114600F01BFB204610BD704740
:1005700070477047704700000048704744130020E0
:1005800010B5FFF7F9FF006810BD10B50446FFF77E
:10059000F3FF046010BD2DE9F0470D4699469246E1
:1005A000044600F124080168880604D5E06921F0BA
:1005B0001001216000E00120A84201DD471B00E09E
:1005C0000027A1697A1902EB0900081AA0612078B6
:1005D000C00602D42046FFF73FFE002608E0D4E91B
:1005E00001211AF806009047206A401C761C206200
:1005F0004E45F4DB2078C0060AD52046FFF72CFED6
:1006000006E0D4E9012130209047206A401C206296
:10061000381EA7F10107F4DC07E0D4E9012118F83E
:1006200005009047206A401C2062281EA5F10105A4
:10063000F3DC2046FFF726FE2078000602D50220D4
:10064000BDE8F0870120FBE770472DE9FF4F0C461E
:100650001E464FF0FF378BB0D2E90001DDF8608015
:100660000A908A46C1F30A5505B93D46002108465D
:100670004FF00000BAF1000F00F4400005DA00EB83
:1006800080004FF4400101EA50004FEA9059B9F15F
:10069000010F00DDB9460A9850EA4A000ED044F630
:1006A0001050A5F2FF3545432F14B8F1000F1ED0AE
:1006B0007542291E1EDDC9F100021CE0B8F1010FD0
:1006C0004FF0000001D0302103E0F24305E0215457
:1006D000401CB042FBDB30460022002121540B9924
:1006E000C1F80880C1E900200FB0BDE8F08FBD1B44
:1006F0006D1CDEE74A4600DA694206A800F098FB66
:1007000006AB93E8070003AB83E8070050460A995D
:1007100001F03BF98DE80700A0F500501F3800906C
:100720000398002D0ADD42F21F014A4608440023C7
:1007300003A90390684601F0E7FB09E0A0F500502B
:100740004A461F38002303A90390684601F006FCBF
:100750008DE807000004000C03D04FF0FF30410883
:1007600000E01046B8F1000F03D0002200921546B9
:100770001EE0751E05D400F045FA303262556D1E3C
:10078000F9D5B3460122084302D000227F1C04E0C1
:100790002078302801D100227F1E002A099784D0BA
:1007A0001DE0112D07DA00F02DFA303262556D1C74
:1007B00050EA0102F5D1084302D00098C8B10EE01A
:1007C0000021681E05E0235C625C63542254401ED5
:1007D000491C8142F7DBAB46A81B401E0990002054
:1007E00004F80B000B98099AC0F80880C0E9002BA8
:1007F0007AE711264FF0000857E72DE9F04F8846B9
:100800000446D21D22F0070191B0D1E90001CDE9E3
:100810000A0104F05AFA02460B98C00F01D02D20AD
:1008200007E02068810701D52B2002E0202101EAA2
:10083000C000032A099001D0072A05DB0346414680
:10084000204600F045FA0BE12078800601D5E069EA
:1008500000E00620B8F1650F814606D0B8F1660FBA
:1008600018D0B8F1670F70D131E00020B9F1110F45
:10087000009001DB112301E009F101030AAA01A99B
:100880000CA8FFF7E2FEDDE90C70002609F1010576
:10089000834647E001204B4600904FF000470AAAEC
:1008A00001A90CA8FFF7D1FEDDE90DB00C995D465A
:1008B000002610B909F101000D18B9EB050003D4A9
:1008C000C0F1FF3609F10105A5EB09002BE0B9F1F4
:1008D000010F01DA4FF001090020B9F1110F00906A
:1008E000484601DD112300E003460AAA01A90CA82D
:1008F000FFF7ABFEDDE90C704D46002683462078FD
:1009000000070AD4AB4500DA5D4601A8012D04DDDD
:10091000411911F8011C302907D04F4502DA17F1AF
:10092000040F04DA012082460FE06D1EEEE7002F6F
:1009300002DCED1B3E4403E0781CA84200DD7D1C78
:10094000B81B00F1010A4FF000472078000703D4DC
:10095000AA4501DB4FF0FF3A0021B7F1004F0DF13E
:1009600043088DF8431024D002202B23002F01DAF6
:100970007F422D230A21021EA0F1010000DC5FB19D
:1009800097FBF1FC97FBF1F201FB1C7C17460CF185
:10099000300C08F801CDEEE7A8F1010003702188C2
:1009A000090501D5452100E06521A0F1010800F805
:1009B000011C09980FA9A1EB0807FF1D00B1012038
:1009C000411901EBEA70A1693844081A401EA06180
:1009D0002078C00602D42046FFF73EFC099828B1D3
:1009E000D4E901219047206A401C20622078C0068B
:1009F00022D52046FFF730FC1EE0002E04DBB34575
:100A000002DD01A8805D00E03020D4E9012190479B
:100A1000206A401C2062761CAAF101005FEA000AED
:100A20000AD100F0EBF8C0680168405CD4E901210C
:100A30009047206A401C2062281EA5F10105DCDCDD
:100A400007E0D4E9012118F8010B9047206A401C07
:100A50002062381EA7F10107F3DC2046FFF712FCE5
:100A6000032011B041E60000074B70B50D467B44F2
:100A700000F01BF90446284600F04CFA10B14FF084
:100A8000FF3070BD204670BDA74C00000FB400239E
:100A900000B589B00CA900910B99CB60214B7B4428
:100AA0000693214B7B44079304236FF00042CDE96A
:100AB00001321E4A7A446B4608920246002006F034
:100AC000F9F909B05DF814FB70B506464FF0FF3038
:100AD00015460C46324686B00091CDE901016946C3
:100AE0000020049004A8FFF7D1FF024604982118C3
:100AF00025B108B1084600E0204628600498002887
:100B00000DD0002A02DD0098884208D03246081B2A
:100B100069460094CDE9010404A8FFF7B7FF06B0C9
:100B200070BD0000AF020000C7020000D701000046
:100B30002DE9F04791460F4680460446002614F8FA
:100B4000015B2DB100F052F80068405DC007F6D19E
:100B50002B2D02D02D2D18D0641E4A463946204632
:100B600000F016F927B13968A14201D1C7F8008019
:100B70004FF0020471050BD54042002803DDFFF75A
:100B8000FBFC0460A007BDE8F08746F48066E4E75C
:100B90000028F8DAFFF7F0FC04606FF00040F2E79D
:100BA0004FF000020429C0F0128010F0030C3FF453
:100BB0008EACCCF1040CBCF1020F18BF00F8012B75
:100BC000A8BF20F8022BA1EB0C01FFF780BC5FEA65
:100BD000C17C24BF00F8012B00F8012B48BF00F8AE
:100BE000012B7047004870474413002010B500F0F7
:100BF00005F8001D10BD00BF214F000000487047E0
:100C00006413002030B5B0F10A024FEA900E71F182
:100C100000034EEA817EB0EB0E0061EB91014FEADA
:100C2000101E4EEA017E10EB0E0041EB11114FEA4F
:100C3000102E4EEA016E10EB0E0041EB11214FEA2F
:100C4000104E4EEA014E10EB0E0041EB11414018E0
:100C500041F100014FEAD00040EA41704FEAD10172
:100C600010EB80054FEA810444EA907444EB0104E0
:100C70006D1944EB0404521BA3414FF0000348BF1D
:100C80000A3200D530BD401C41F1000130BD10B525
:100C90000446FFF7ABFF0068005D00F0010010BDE7
:100CA00001694A1C02610878704700B58FB0CDE930
:100CB00001310021059105497944CDE90310114620
:100CC0006846FFF759FB0FB000BD0000E5FFFFFFCE
:100CD0002DE9F0411F46044603260168072A01F466
:100CE000006004DB08B116A505E016A503E008B115
:100CF00015A500E015A521F010002060A069C01E18
:100D0000A0610FB1401EA0612046FFF7A5FA4FB1C8
:100D1000D4E9012138469047206A401C2062C01C5B
:100D2000206206E0206AFAE7D4E9012115F8010BF8
:100D30009047761EF8D22046FFF7A4FABDE8F0816E
:100D40004E414E006E616E00494E4600696E66006F
:100D5000426842B1016811F8013B23B1521EC0E95B
:100D60000012184670470121C160881E7047426812
:100D70005AB1C368016843B983688B4205D0491EE4
:100D8000521CC0E90012002070474FF0FF3070473E
:100D90002DE9F05F824615468B4600270AF10104D3
:100DA000B9460078302801D09DB113E014F8010B4A
:100DB0000127782803D0582801D045B10AE00DB1A9
:100DC000102D07D1002714F8010B102502E008258B
:100DD00000E00A250026B0460EE005FB080005FBF2
:100DE00006F101271FFA80F801EB1046B6F5803FA7
:100DF00000D3B94614F8010B294600F0B4F80028D6
:100E0000EBDABBF1000F05D00FB1641E00E05446D1
:100E1000CBF80040B9F1000F06D0FFF7ADFB02217F
:100E20000160C81EBDE8F09F48EA0640FAE70000EE
:100E30002DE9F047814616468AB0354878440DC8FA
:100E40008DE80D0032487844801C03AC0DC884E85E
:100E50000D0041F69B300844372190FBF1F290FBE6
:100E6000F1F5A5F1800501FB12041B3C02D564429B
:100E7000012000E00020DFF898A080460027FA4417
:100E8000AAF1BE0A0EE0E0070AD03246684607EB38
:100E9000470101230AEB810101F060F88DE80700AA
:100EA00064107F1C002CEED1194F7F44AE3F19E037
:100EB000E80715D007EB04100DF1180A90E80E00B2
:100EC0008AE80E00C068F04201D1981908903246B5
:100ED000012306A903A801F041F803AB83E807004A
:100EE0006D10641C002DE3D14FF0010332466946BA
:100EF000B8F1000F03A802D001F006F801E001F0FC
:100F00002DF8C9E90001C9F808200AB0BDE8F0874A
:100F10007C620000007B00F0800070477546FFF7A0
:100F200061FEAE4605006946534620F0070085463F
:100F300018B020B5FFF770F9BDE820404FF000066B
:100F40004FF000074FF000084FF0000B21F00701B1
:100F5000AC46ACE8C009ACE8C009ACE8C009ACE8F4
:100F6000C0098D4670473A2800D2303820F0200260
:100F7000412A01D3A2F13700884201D34FF0FF305C
:100F8000704700002DE9FF4F06468BB00878FF2818
:100F900006D0491C2D2805D000244FF0000908E098
:100FA00000200CE00124F8E709EB8903491C00EB61
:100FB00043090878FF28F7D114B1C9F10000814630
:100FC000107800252C46AA4629462D2801D02B282A
:100FD00004D1521C2D2813D0002082468B46107855
:100FE000FF280FD04FF0000C0A21521CA5FB0178FE
:100FF00004FB018105FB0C11C5194BEB0104EEE765
:101000000120EAE7002108464FF00000BAF1000F86
:1010100002D000EB80004008C0F38157012F01DDB2
:101020004FF0FF370E9955EA040009EB01080BD089
:101030004FF0020918F5FA7F16DA4FEACA70002F4E
:10104000706008DD012007E04FEACA70C6E900B011
:101050000FB0BDE8F08F00203060FFF78DFAC0F8C8
:1010600000901821084616E0B8F5FA7F18DD002F29
:1010700002DAF748784401E0F6487844D0E90010F5
:10108000C6E9001040EACA707060FFF775FAC0F850
:101090000090142108460FB0BDE8F04F05F07FBE68
:1010A000002108464FF00000B8F10001099002DA73
:1010B000C7F1000200E03A4601DAC8F1000106A8D3
:1010C000FFF7B6FE06AB93E8070003AB83E8070023
:1010D00044F23E005BEA04010090584604D144F219
:1010E0001E012C465D460091210C0904014306D1E6
:1010F0000099240444EA15442D041039009104F0A9
:101100007F41014306D10099240244EA15642D026F
:101110000839009104F07041014306D1009924017F
:1011200044EA15742D01091F009104F04041014368
:1011300006D10099A40044EA9574AD00891E00917F
:1011400004F00041084304D100986D196441401E29
:1011500000904FF001033A466846B8F1000FCDE920
:10116000014503A902DD00F00EFF01E000F0E1FE01
:10117000BAF1000F04460D4601D084F0004400216E
:1011800008464FF00000099940F2FF77484010F000
:101190000C0F07D124F00040284303D0C4F30A50B9
:1011A000B84212D1FFF7E8F9C0F80090C4F30A5032
:1011B000B8420AD1A8487844D0E90010C6E9001026
:1011C00004F000410843706042E7C6E900543FE77D
:1011D0002DE9FF4F1F464FF0000A4FF0FF384546FC
:1011E00091B0D7E90146CDF83CA0FFF707FDC068F4
:1011F0000168405C1090B96912986D1C8847396A83
:10120000814688470028F6D1B9F1FF3F0AD0002E69
:1012100024F4D06411DDB9F12B0F08D0B9F12D0FF2
:101220000BD102E0404615B013E744F48064B9697D
:1012300012986D1C8847761E8146600504A901D569
:101240002D2000E02B20002E01F1010B0DF13008C4
:101250008DF810003FDDB9F1690F08D0B9F1490FE1
:1012600005D0B9F16E0F02D0B9F14E0F1CD13B463B
:1012700001A8009580E85002DDE912126FF002002B
:1012800005F01CFEC11CCED10EE0B96912986D1C90
:10129000884781461398761E44F4007405600F98C1
:1012A000401C002E0F9016DDB9F1300FEDD0B9F1D2
:1012B000780F02D0B9F1580F0DD10F9801280AD13B
:1012C0003B46CDE90054DDE91212001F029605F0FD
:1012D000F3FDC11CA7D1109989453ED144F080048B
:1012E00006E01399681CAAF1010A44F4007408602E
:1012F000B9696D1C1298761E884730288146F0D057
:101300002BE01099894505D1200603D4761E44F0C0
:10131000800418E0484603F0A0FE08B3761E0DF1E5
:1013200023018B4544F4007408D2A9F130000BF876
:10133000010B200607D5AAF1010003E0200602D424
:101340000AF101008246A00502D51399681C0860C5
:10135000B96912986D1C88478146002ED1DC53E094
:10136000002E51DDB9F1650F02D0B9F1450F4BD117
:10137000A00549D5B9696D1C1298761E24F44074F5
:101380008847002E81460CDD2B2804D0B9F12D0FA3
:1013900007D144F48074B96912986D1C8847761E91
:1013A0008146E00501D52D2100E02B2108F8011B25
:1013B000CDF8008021E0761E0DF13901884544F416
:1013C00000740CD2A9F1300010F0FF0088F8000082
:1013D00002D10099884509D908F1010806E0E00525
:1013E00001D51E4801E042F20F708246B969129899
:1013F0006D1C8847814613980560002E04DD484621
:1014000003F02BFE0028D6D1F96912988847FF20F7
:1014100053468BF8000088F8000000200A900B90DB
:1014200004AA0CA90AA8FFF7ADFDA00502D46FF02D
:101430000100F8E614F0240F12D0E0071CD1386840
:10144000DDE90A12031D3B600068C0E9001213E0E9
:1014500084600000766000003A5F0000F1D8FFFF72
:101460000AA9684603F0D4FCE00705D13868009A61
:10147000011D3960006802602846D4E610B50446B4
:10148000AFF300802046BDE81040FEF7B1BE00007B
:101490004FF0013C50F8042B51F8043B9A4221D103
:1014A000A2EB0C03934313EACC1317D150F8042B8F
:1014B00051F8043B9A4215D1A2EB0C03934313EA73
:1014C000CC130BD150F8042B51F8043B9A4209D1AC
:1014D000A2EB0C03934313EACC13DBD04FF00000D4
:1014E000704700BFD01A01BAB1FA81F101F01801BA
:1014F00022FA01F0CB40C1F12001DBB2C0B2C01A28
:101500002CFA01F3D11A914311EAC311E6D17047C5
:101510002DE9FF4F1F464FF03C0987B04FF00042C6
:10152000DDE9141001F10108DDF858A002EA40508D
:101530000390002005908346054604460490B9694F
:10154000461E08988847AAF1010A0290BAF1000FD6
:101550003BDD02982E2815D01021FFF704FD00284E
:101560002EDB4FF0010B0599014317D0B9F1000FA5
:101570000BDB4A46C11700F0F5F905430C43A9F10E
:10158000040905E0012004900BE008B145F00105D5
:1015900001200590049820B9361D02E0049800B19E
:1015A000361FB969089808F101088847BBF1000F98
:1015B000AAF1010A0290C9D00999C1F80080C5E7D3
:1015C0000298702808D0502806D0F96908988847F2
:1015D000BBF1000F14D04FE0002002900120BBF1BE
:1015E000000F049009D0B969089808F101088847EC
:1015F000AAF10109B9F1000F07DCF96908988847D9
:101600006FF001000BB0BDE8F08F2B2804D02D281F
:101610000CD14FF0FF300490B969089808F1010827
:101620008847A9F10109B9F1000FE6DD411CE4D0BA
:101630000A21FFF798FC0028DFDB029908F1010876
:1016400001EB810100EB41000290B96908988847DD
:101650000A21FFF788FC099AA9F10109B9F1000FE5
:10166000C2F8008001DD0028E7DAF96908988847A8
:101670000499029800FB016655EA040004D004F0C6
:101680004041090002D006E0039898E0A40044EA33
:101690009574AD00B61E04F00041080002D16D192A
:1016A0006441761E159810F0240F03D04FF00B09FB
:1016B0005C4803E04FF028096FF07D0082465645F4
:1016C00007DAAAEB06018944B9F1410F01DD4FF0B9
:1016D000410901200021A9F1010200F043F902466D
:1016E00028400B462140084301D0012100E00021A1
:1016F000501E029143F1FF3128402140084301D0A0
:10170000012000E000200299834651EA0B014FD0EE
:10171000002108464FF00000039900F4400039B161
:1017200000EB80004FF4400100EBD07001EA600054
:101730008015012802DD4FF0FF3000E013D0401C7F
:1017400036D0029860B3BBF1000F0CD14A4601209D
:10175000002100F007F928402140084301D0012072
:1017600000E00020E0B101204A46002100F0FAF834
:10177000034640190A4661412D1A8C4111D3B9F133
:10178000400F09DD159810F0240F02D0AAF134069D
:1017900003E0AAF1170600E0761C00254FF0004494
:1017A00006E05B1E42F1FF3220EA030521EA020453
:1017B000CAF10100B04206DA1B49039808430190C0
:1017C000002000900EE0039AC4F3D321E80A0A43F4
:1017D000164940EA44500A433146CDE900026846C2
:1017E00003F030FC159810F0240F0BD01598C007AB
:1017F00015D13868DDE90012031D3B600068C0E9BF
:1018000000120CE002A8694603F002FB1598C0071D
:1018100005D13868029A011D3960006802604046AF
:10182000F0E6000002FCFFFF0000F07F0000F03F48
:101830002DE9FF4F92461D4685B04FF00041DDE98E
:10184000124BDDE914727F1E01EA4B50414940F012
:10185000FF4940EA0108002122F0200049280491B4
:1018600002D04E2828D04CE03BA0012607C88DE8C6
:101870000700A9690698641C88477F1E014606D4A4
:101880001DF8060018B121F0200181420BD0E96952
:1018900006988847032E34D0082E32D06FF001000E
:1018A00009B0BDE8F08F761C032E01D0082EE0D1E0
:1018B000601CCAF80000DCE7A9690698641C884728
:1018C0007F1E2AD420F02000412826D1A96906983D
:1018D000641C88477F1E20D420F020004E281CD195
:1018E000A9690698641C88477F1E48F4002849F4BB
:1018F0008009CAF8004001D4282806D0E969069872
:1019000088475FEACB7012D022E0A9690698641C70
:1019100088477F1E01D4002803DAE96906988847C2
:10192000BCE72928F1D1641CCAF80040E9E71BF0A4
:10193000240F07D028680499031D2B600068C0E9B4
:10194000001805E02868021D2A600068C0F80090B1
:101950002046A5E70000F07F494E46494E495459BC
:1019600000000000B2F120030AD5C2F1200301FA01
:1019700002F120FA03F300FA02F041EA0301704792
:1019800000FA03F14FF0000070475FEA400C08BF17
:1019900091F0000F4FEA8C234FEAC12243EA5151E4
:1019A0004FEA1C5018BF00F5F0404FEA300018BF56
:1019B00041F000415FEA6C5C00F02980BCF1FF3F20
:1019C00008BF40F080407047130C06BF12044FF070
:1019D000100C4FF0000C130E04BF12020CF1080C97
:1019E000130F04BF12010CF1040C930F04BF9200FB
:1019F0000CF1020CD30F04BF52000CF1010C114684
:101A00004FF00002A0F11F00A0EB0C00704711F096
:101A1000004F08BF704731F000413FF4D5AF0B0CC9
:101A200006BF09044FF0100C4FF0000C0B0E04BF62
:101A300009020CF1080C0B0F04BF09010CF1040C96
:101A40008B0F04BF89000CF1020CCB0F04BF4900BF
:101A50000CF1010CCCF12003A0EB0C0022FA03F3F3
:101A600002FA0CF241EA030100F10100704720F094
:101A70007F4C80EA030023F07F47ACEB070303F5BC
:101A80007C5300F0004003F1FF032DE980494FEA49
:101A9000154B09B44FEA144325EA0B4E24EA0348D8
:101AA0000FF2042606EB132749083E785FEA32025C
:101AB00003FB0667C7F5000707FB06F64FEA543736
:101AC0004FEAD64606F1020607FB066CCCF1005C35
:101AD0004FEA1C472CEA074C07FB06F40CFB06F503
:101AE00004EB15464FEA961634BF00204FF0004035
:101AF0004FEAD13706FB07FC4FEA1C4C0CFB0BF7F7
:101B0000D21B03FB0CF761EB07010CFB0EF7B0EBEC
:101B1000074072EB17420CFB08F734BFA2EB0742F9
:101B2000B2EB074261EB17414FEA0C444FEA9107D1
:101B300006FB07FC4FEA1C4C0CFB0BF7B0EBC74055
:101B400072EB573203FB0CF734BFA2EBC742B2EB88
:101B5000C74261EB57310CFB0EF7B0EBC70072EBDD
:101B600057720CFB08F734BFA2EBC702B2EBC702F7
:101B700061EB5771039F4FEA816141EA921104EBD7
:101B8000CC044FEAD1374FEA826206FB07FC42EAF7
:101B900090124FEA80604FEA1C4C0CFB0BF7D21BF3
:101BA00003FB0CF761EB07010CFB0EF7B0EB0740F2
:101BB00072EB17420CFB08F734BFA2EB0742B2EB03
:101BC000074261EB17414FEA8C554FEA910704EB4E
:101BD0009C2406FB07FC4FEA1C4C0CFB0BF7B0EBFC
:101BE000C74072EB573203FB0CF734BFA2EBC7427E
:101BF000B2EBC74261EB57310CFB0EF7B0EBC700FD
:101C000072EB57720CFB08F734BFA2EBC702B2EBC2
:101C1000C70261EB577115EB4C254FEA816141EA30
:101C200092114FEA82624FEAD13742EA901206FBE4
:101C300007FC44F100044FEA80604FEA1C4C0CFBA7
:101C40000BF7D21B03FB0CF761EB07010CFB0EF744
:101C5000B0EB074072EB17420CFB08F734BFA2EB66
:101C60000742B2EB074261EB174115EB1C154FEA37
:101C7000813141EA92414FEA823242EA90424FEA90
:101C800080304FEA0C7644F1000448EA03434EEA00
:101C90000B484FF0000EB2EB080C71EB030724BFAA
:101CA000624639464EEB0E0E4FF0000B00185241C3
:101CB00049414BEB0B0BB2EB080C71EB03077BF1CB
:101CC000000B24BF624639464EEB0E0E4FF0000B60
:101CD0000018524149414BEB0B0BB2EB080C71EB76
:101CE00003077BF1000B24BF624639464EEB0E0E14
:101CF00051EA020718BF46F0010616EB0E7655F1C1
:101D0000000254F1000103D5BDE88901BDE8008857
:101D1000BDE88901BDE80048B619524141EB010117
:101D2000A3F10103704780807F7E7D7C7B7A797888
:101D3000777676757473727171706F6E6E6D6C6C90
:101D40006B6A6A6968686766666564646363626132
:101D50006160605F5F5E5E5D5D5C5C5B5B5A5A59B3
:101D6000595858575756565555555454535352521F
:101D70005251515050504F4F4F4E4E4D4D4D4C4C77
:101D80004C4B4B4B4A4A4A494949484848474747C0
:101D900047464646454545444444444343434342FD
:101DA000424242414141000046EA0646A3F57053D3
:101DB0004FEA164646EA42564FEAD22242EA4152DA
:101DC00010B54FEAD121A3F1010300F02FF820F064
:101DD000004000F1020C00F0004701EB00501146FA
:101DE000BCF5006F40EA070000D210BDBAF1000F49
:101DF0000AD01CB503B44FF004004FF004014FF0BB
:101E000000000FBCBDE810404FF00001BBF1010F16
:101E1000B9BF04484FF0FF310348002140EA0700F2
:101E200010BD00BFFFFFEF7F0000F07F002B9C463E
:101E300030D477002BD01CB54FEA370703B44FF0EE
:101E400010004FF01001BAF1000F06D0BCF1000FE6
:101E5000DCBF40F0080040F008014FF000000FBC6C
:101E6000BDE810400BF1010BBBF1010F08BF5FEAA9
:101E7000170722BF12F1010211F101014FF00041D9
:101E800043F1000300F0004043EA00007047F9D33B
:101E90005708D0E746EA064613F1400F4FEA1646C8
:101EA0001FDD13F1200FDFBF16430A460021203348
:101EB0005B42BED0C3F1200746EA064602FA07F7A6
:101EC0004FEA164646EA0706C3F1200722FA03F254
:101ED00001FA07F721FA03F14FF0000342EA070283
:101EE000A7E746EA020646EA06464FEA164646EAEB
:101EF0000106BCBF46EA0646360C4FF000034FF021
:101F000000024FF0000194E72DE9804C9A46934679
:101F100070B491E8380007C831EA400C48BF34EA91
:101F2000430C03D5FFF7A3FDFFF780FFF0BCBDE82E
:101F3000008C2DE9804C9A46934670B491E83800A5
:101F400007C831EA400C48BF34EA430C03D5FFF719
:101F50008EFDFFF729FFF0BCBDE8008C2DE9804C19
:101F60009A46934670B491E8380007C810F0804F45
:101F700008BF13F0804F03D100F01AF8FFF756FFA7
:101F8000F0BCBDE8008C2DE9804C9A46934670B4B5
:101F900091E8380007C810F0804F08BF13F0804F59
:101FA00003D100F005F8FFF7FFFEF0BCBDE8008CA0
:101FB00020F07F4780EA030023F07F4C07EB0C03FF
:101FC000A3F57C5300F00040A3F1FE0392F0000F54
:101FD00000F0B38095F0000F00F077802DE9014903
:101FE0004FEA11404FEA144621EA004800FB06FC84
:101FF00024EA064708FB06F607FB08F800FB07F78C
:1020000018EB06484CEB164C4FEA124B18EB0748FE
:102010004FEA15464CEB174022EA0B4E0BFB06FC31
:1020200025EA06470EFB06F607FB0EFE0BFB07F73D
:102030001EEB064E4CEB164C4FF000061EEB074E07
:102040004CEB174B18EB0B0840F1000018EB0E0B94
:1020500058EB000840F100008F1A4FF000013CBF20
:10206000C943661B14BFB5EB040C00213CBFC94338
:10207000F61B4FEA17444EEA8E0E27EA04454FEA54
:102080001C4704FB07622CEA074C05FB07F70CFB17
:1020900005F604FB0CFC16EB074642EB174216EB69
:1020A0000C4642EB1C421BEB060658EB0202414178
:1020B00046EA9E0601D5BDE80189B619524141EBB9
:1020C0000101A3F10103BDE801894FEA14454FEA7C
:1020D000114724EA054621EA074C05FB07F406FBF5
:1020E00007F70CFB06F105FB0CFC11EB074144EB79
:1020F00017444FEA124711EB0C4144EB1C4422EA0F
:10210000074C05FB07F206FB07F70CFB06F605FB81
:102110000CFC16EB074642EB174216EB0C4642EB63
:102120001C456A1854F1000148BF7047B619524166
:1021300041EB0101A3F10103704795F0000F37D087
:102140004FEA11424FEA144721EA024624EA074CBB
:1021500002FB07F106FB07F70CFB06F402FB0CFC85
:1021600014EB074441EB17414FEA154714EB0C44BD
:1021700041EB1C4125EA074C02FB07F506FB07F77C
:102180000CFB06F602FB0CFC16EB074645EB17456D
:1021900016EB0C4645EB1C42121951F1000148BFE9
:1021A0007047B619524141EB0101A3F10103704799
:1021B0004FEA14454FEA114724EA054621EA074C45
:1021C00005FB07F106FB07F70CFB06F24FF00006D4
:1021D00005FB0CFC12EB074241EB174112EB0C42E2
:1021E00051EB1C4148BF7047921841EB0101A3F12C
:1021F000010370472DE9F043244D4FF00009484694
:10220000AB88AC8E4946A3EB040C214B214C0A460B
:102210001E7806EB4607761C24F817C0B5F806C0F2
:10222000B5F8368004EB4707ACEB080CA7F802C002
:10223000B5F808C02D8FF6B2ACEB0505BD801E7059
:1022400058705D7805EB45076D1C34F917C004EB39
:1022500047076044B7F902C0B7F90470EDB26144B2
:102260003A445D70142DECD3142490FBF4F5084827
:1022700091FBF4F13030142E0580418092FBF4F193
:10228000818001D183F80090BDE8F083EC0000204C
:1022900064000020B40A002000210F4A084600BF55
:1022A00001EB4103491C22F8130002EB43031429FC
:1022B00058809880F4DB09494FF07E52C1E9042030
:1022C0008861C1E9070248628862C86202497831C0
:1022D0000860486088607047B40A002064000020ED
:1022E00030B55C49012487B00A784B78B2FBF3F033
:1022F00003FB102558485B1E9D4200D1C4708B78AB
:10230000B2FBF3F503FB15255B1E9D4200D18470E3
:10231000CB78B2FBF3F503FB15255B1E9D4200D184
:10232000C4720B79B2FBF3F503FB15255B1E9D42CE
:1023300000D144734B79B2FBF3F503FB15255B1E0B
:102340009D4200D184738B79B2FBF3F503FB152515
:102350005B1E9D4200D14470CB79B2FBF3F503FBC9
:102360001525DB1E9D4202D1437C5B1C4374521C2D
:102370000A70427800214FF4C8734AB1417000914D
:1023800064224FF49671042000F000FA07B030BDCB
:10239000827852B181703148CDE900418268D0E93C
:1023A0000010642300F092F9F0E7C278B2B1C17076
:1023B0002B480291039104910591B0F90E20B0F9D8
:1023C0000C10CDE90012B0F90A30B0F90820B0F9CC
:1023D0000610B0F9040000F00FF9D7E7C27A0AB18D
:1023E000C172D3E7427B82B141734FF448744FF41A
:1023F0002F724FF416714FF4FA708DE817001E22F9
:1024000014210A2000F080F8C0E7827B42B181737A
:1024100007B04FF4E471BDE830407B2000F0C0B855
:1024200042790AB14171B1E782790AB18171ADE7B0
:10243000C2790AB1C171A9E7427C022AA6D14174CE
:1024400008480090084B094A1421032000F010F8B6
:102450009CE7000048000020700A00202C0B0020A0
:10246000EC0000200000344280AE9315E0F3BB473F
:10247000F8B5234CAA27DDF818C027706770042729
:10248000A7702071617100929DF80300A0719DF802
:102490000200E0719DF8010020729DF8000060725A
:1024A00000939DF80300A0729DF80200E0729DF871
:1024B000010020739DF80000002660733546114925
:1024C000604604F0F1FA04F0A7FAADF800009DF8B8
:1024D0000100A0739DF80000E07310210C20E07053
:1024E0002046425D6D1C3244EDB2D6B28D42F8D327
:1024F0004654BDE8F8400248491C02F025BB0000E4
:10250000820A00200000C8423FB42448AA210023C8
:1025100001704170062181709DF8011001719DF8D4
:10252000001041719DF8051081719DF80410C17172
:102530009DF8091001729DF8081041729DF80D1068
:1025400081729DF80C10C1729DF8191001739DF8ED
:10255000181041739DF81D1081739DF81C10C173F4
:102560009DF8211001749DF8201041749DF82510EC
:1025700081749DF82410C174142110241A46C4706B
:10258000845C521C2344D2B2DBB28A42F8D3435457
:1025900004B0024830BC491C02F0D6BA820A0020BE
:1025A00078B4144AAA250024157055700525957035
:1025B000ADF800009DF8010010719DF80000507109
:1025C000ADF800109DF80100907104259DF8000001
:1025D000D07123460821D570D05C5B1C2044DBB24F
:1025E000C4B28B42F8D3545478BC0248491C02F060
:1025F000ABBA0000820A00202DE9F84F0AACAA27E6
:1026000094E8001F304C002635462770677002277B
:10261000A770ADF800009DF8010020719DF8000042
:102620006071ADF800109DF80100A0719DF80000E8
:10263000E071ADF800209DF8010020729DF80000C7
:102640006072ADF800309DF80100A0729DF80000A6
:10265000E072ADF800809DF8010020739DF8000045
:102660006073ADF800909DF80100A0739DF8000024
:10267000E073ADF800A09DF8010020749DF8000003
:102680006074ADF800B09DF80100A0749DF80000E2
:10269000E074ADF800C09DF8010020759DF80000C1
:1026A000607516211220E0702046425D6D1C324498
:1026B000EDB2D6B28D42F8D34654BDE8F84F024889
:1026C000491C02F041BA0000820A00202DE9FC5F9B
:1026D0002C4CDDE90C898A46AA2101932170617096
:1026E0000121294F0026A17093463546394604F052
:1026F000DBF904F091F9ADF800009DF801002071BC
:102700009DF8000060713946504604F0CDF904F0A0
:1027100083F9ADF800009DF80100A0719DF800005C
:10272000E0713946584604F0BFF904F075F9ADF888
:1027300000009DF8010020729DF8000060729DF875
:102740000700A0729DF80600E0729DF80500207356
:102750009DF80400607384F80E80102184F80F90B7
:102760000C20E0702046425D6D1C3244EDB2D6B2C2
:102770008D42F8D34654BDE8FC5F0248491C02F084
:10278000E3B90000820A00200000C8423FB4184AA2
:10279000AA21002411705170947010719DF80500E9
:1027A00050719DF8040090719DF80900D0719DF85A
:1027B000080010729DF80D1051729DF80C10917266
:1027C0009DF81910D1729DF8181009201173234635
:1027D0000D21D070D05C5B1C2044DBB2C4B28B42B4
:1027E000F8D3545404B0024830BC491C02F0ACB9D0
:1027F000820A002072B6018A21F0010101820121C2
:10280000818162B67047FEE72DE9F0474E4D8CB0EE
:1028100014212C7806A8FDF758FE642C27D008DC7C
:10282000522C2ED0532C7DD0612C1DD0622C06D181
:102830000EE0672C15D06C2C1DD0742C7FD043A0DB
:10284000FDF7FEFC4649002008800CB0BDE8F0878B
:1028500044A0FDF7F5FC052002F044FF01F074FCF4
:10286000F0E700F041FEEDE700F0F2FCEAE7424855
:1028700002E00170E6E741480178002961D00021BB
:10288000F7E7142106A8FDF720FE0422691C06A81C
:10289000FDF742FE06A802F0F1FE03F053F9384CB2
:1028A0001421206006A8FDF710FE0422A91D06A829
:1028B000FDF732FE06A802F0E1FE03F043F9A06046
:1028C000142106A8FDF701FE1F4905220B3106A8B9
:1028D000FDF722FE06A802F0D1FE03F033F9606096
:1028E000142106A8FDF7F1FD17490322113106A8AE
:1028F000FDF712FE06A8FDF7DBFD04F0A9F8E06085
:1029000003F034FF81468A46606803F02FFF0746D4
:102910008846A06803F02AFF05460E46206803F0AB
:1029200025FF01E008E00AE08DE8E00702460B46DB
:1029300014A0FDF785FC85E701F084F982E71948CA
:102940009AE7012195E7000060010020756E6B6E2B
:102950006F776E20636F6D6D616E640D0A0000000D
:10296000300000200D0A53797374656D2052656242
:102970006F6F740D0A00000050000020510000200D
:10298000BC000020524F4C4C20503A256609493A71
:10299000256609443A256609506F7765723A2566BF
:1029A0000D0A00005200002070470120AFF30080A4
:1029B00001490860704700001404014030B51A490D
:1029C0008379026853B30B6893430B600A1D136845
:1029D0000468A343136002790A441368046823431C
:1029E0001360114A083213680468A3431360131D6F
:1029F0001C680568AC431C604479102C05D0214448
:102A00000A68006802430A6030BD11680468214307
:102A10001160196800680143196030BD00790844ED
:102A200001689143016030BD0004014070B5054666
:102A30004FF43026304600F059F8042811D1094CE3
:102A4000206940F0020020616561206940F040008B
:102A50002061304600F04AF8216941F6FD721140CC
:102A6000216170BD0020024008490420CA68D207D5
:102A700001D001207047CA68520701D50220704773
:102A8000C968C906FBD5032070470000002002403A
:102A90000248016941F08001016170470020024055
:102AA000F0B506464FF400570D46384600F01EF8C4
:102AB00004280CD1064C206940F0010020613580CB
:102AC000384600F013F82169BA1E11402161F0BDAB
:102AD00000200240034802494160034941607047B9
:102AE0002301674500200240AB89EFCD00B50346C6
:102AF000FFF7BAFF03E000BFFFF7B6FF5B1E012838
:102B000003D0002B00D1052000BD002BF4D1FAE743
:102B100010B58A0721F003040649130F21440F2240
:102B20008C689A4094438C608A68984002438A601B
:102B300010BD000000000140F0B5CA78002502F089
:102B40000F03D20601D58A7813430A784FF00F0E8F
:102B500012F0FF0F4FF001021CD004680F8802FA38
:102B600005F63740B74211D14FEA850C0EFA0CF743
:102B700024EA070703FA0CF43C43CF78282F02D04D
:102B8000482F02D002E0466100E006616D1C082D6E
:102B9000E4D304600C88FF2C1ED944685FF0000663
:102BA00006F1080702FA07F50F882F40AF420FD150
:102BB0004FEA860C0EFA0CF7BC4303FA0CF73C43C1
:102BC000CF78282F00D14561CF78482F00D10561FB
:102BD000761C082EE4D34460F0BD0161704700000C
:102BE00010B5062209490A4801F028FA07480949A0
:102BF00002888A864288CA8682880A87C2884A876B
:102C000002898A874089C88710BD0000380B0020E0
:102C100000E80308EC000020FEE700002DE9F04F7B
:102C2000FE4C9BB0B4F90A00B4F93A10401A03F014
:102C30000FFFFB4D294603F037FF0090B4F90C005D
:102C4000B4F93C10401A03F003FF294603F02CFFAF
:102C50000290B4F90E00B4F93E10401A03F0F8FEE9
:102C6000294603F021FFEF4C0190B4F9000003F076
:102C7000EFFE0690B4F9020003F0EAFE0590B4F905
:102C8000040003F0E5FE303C049021690D4628461F
:102C900003F00AFF1490616928460E4603F004FF12
:102CA0000F90A16928460F4603F0FEFE31461390AF
:102CB000084603F0F9FE0D90E16930460D4603F039
:102CC000F3FE39461290084603F0EEFE09902946BD
:102CD000384603F0E9FE29461190084603F0E4FE69
:102CE0000B90216A8846404603F0DEFE1690616A2A
:102CF0000D46284603F0D8FEA16A82460846079191
:102D000003F0D2FE1090E16A0391084603F0CCFE76
:102D10000E902846079903F0C7FE19904046039984
:102D200003F0C2FE1A900199039803F0BDFE074616
:102D30000299079803F0B8FE064685F00040009916
:102D400003F0B2FE314603F0B5FF394603F0B2FF9F
:102D5000DFF8D4B25F46594603F0A6FE414603F0C1
:102D600031FD06462062DDE9021003F09DFE81463A
:102D70000199079803F098FE80463046009903F0C9
:102D800093FE414603F01EFD494603F093FF39468A
:102D900003F08AFE294603F015FD6062054600999E
:102DA000039803F081FE80462846019903F07CFEDB
:102DB00081463046029903F077FE494603F07AFFD8
:102DC000414603F0FFFC394603F06EFE079903F01D
:102DD000F9FCA062009903F067FE8046284602993C
:102DE00003F062FE05463046019903F05DFE294678
:102DF00003F0E8FC414603F05DFF394603F054FE62
:102E0000039903F0DFFCE0625146169803F0DAFC08
:102E1000109903F0D7FC0E9903F0D4FC03F0A6FC44
:102E200002F03EFE02F08EFE05460146206A03F0E7
:102E300031FD20622946606A03F02CFD606229465C
:102E4000A06A03F027FDA0622946E06A03F022FD94
:102E5000E062DDE9051003F027FE049903F024FE8B
:102E600010F0FF4F7ED00499084603F01DFE05992F
:102E70000646084603F018FE06990546084603F084
:102E800013FE294603F09EFC314603F09BFC03F041
:102E90006DFC02F005FE02F055FE0546014606985F
:102EA00003F0F8FC06902946059803F0F3FC8146F0
:102EB0002946049803F0EEFC0490DDE9120103F0CA
:102EC000F9FE012103F0D0FF074611990F9803F096
:102ED00079FC012103F0C8FF06460D99149803F010
:102EE000E9FE099903F0E6FE0B9903F06BFC054639
:102EF0003146049803F0D8FD80462946484603F041
:102F0000D3FD414603F0D6FE82462946069803F0DB
:102F1000CBFD05463946049803F0C6FD294603F06B
:102F2000C9FE80463946484603F0BEFD0546314697
:102F3000069803F0B9FD294603F0BCFE3B4E8146DE
:102F40003146504603F0B0FD616803F03BFC074694
:102F500060603146404603F0A7FDA16803F032FCF3
:102F6000054600E043E1A0603146484603F09CFD81
:102F7000E16803F027FC0646E0600121504603F0BB
:102F800073FF009903F01EFC394603F01BFC074653
:102F90000121404603F068FF029903F013FC294623
:102FA00003F010FC05460121484603F05DFF01993E
:102FB00003F008FC314603F005FC06460146E069D3
:102FC000049003F071FD8246A0692946059003F044
:102FD0006BFD814660693946804680F0004003F011
:102FE00063FD494603F066FE514603F063FE594611
:102FF00003F05AFD216903F0E5FB81462061294673
:10300000049803F051FD07903146059803F04CFDFC
:1030100082463946484603F047FD09E0EC000020AF
:103020002E9E8B3A940000206F12033A0AD7A33BDE
:10303000514603F0C7FB079903F03CFE594603F0E5
:1030400033FD414603F0BEFB80466061394604987B
:1030500003F02AFD82463146404603F025FD0A90E2
:103060002946484603F020FD0A9903F023FE514605
:1030700003F0A8FB594603F017FD059903F0A2FBE6
:103080003946A06103F010FD07462946404603F08B
:103090000BFD05463146484603F006FD294603F080
:1030A00091FB394603F006FE594603F0FDFC0499F6
:1030B00003F088FBE0610D99149803F083FB0999F4
:1030C00003F080FB0B9903F07DFB03F04FFB02F054
:1030D000E7FC02F037FD05460146206903F0DAFB04
:1030E00020612946606903F0D5FB60612946A0692B
:1030F00003F0D0FBA0612946E06903F0CBFBE0615F
:103100000121099803F0B0FE04464FF040452946DE
:103110000D9803F0C9FC214603F0CCFD4FF07E561C
:10312000314603F04FFB03F021FB04460F4601211B
:103130000F9803F099FE80460121119803F094FE48
:10314000414603F03FFB03F011FB22463B4602F0F1
:10315000D5F9DFF8A0806F083A46434602F0F6FF43
:1031600002F0F0FC244C01212060139803F07CFE57
:1031700081462946129803F097FC494603F022FB4A
:1031800003F0F4FA01F072FF3A46434602F0DEFF24
:1031900002F0D8FC606001210E9803F065FE8146C4
:1031A0002946109803F080FC494603F083FD314620
:1031B00003F008FB03F0DAFA05460E4601211A98DF
:1031C00003F052FE81460121199803F04DFE494655
:1031D00003F0F8FA03F0CAFA2A46334602F08EF9F1
:1031E0003A46434602F0B2FF02F0ACFCA0601BB0CE
:1031F000BDE8F08F66A64C402C0B00202DE9F0476F
:10320000104EDFF84490114D00246FF009084FF480
:103210008067204603F01CFC314603F045FC414624
:1032200003F022FE02F078FB494603F03DFC00F07B
:10323000FBFE03F0F1FB25F81400641CBC42E8DB44
:10324000BDE8F087DB0FC94000FEFF46440B0020BD
:103250002DE9F84F002164248A468B460F468846A4
:103260000D460E466AA0FCF7EBFF70A0FCF7E8FFE6
:103270004FF47A79484602F035FA484602F032FABD
:10328000484602F02FFA484602F02CFA6BA0FCF7F1
:10329000D7FF6D4901F108008946009016E000BF94
:1032A00009F10601881E009A00F0E6F9B9F9040058
:1032B00002F0F9FE52465B4602F076FC82468B46EF
:1032C00062A0FCF7BDFF052002F00CFA641EE4B218
:1032D000E6D25FA0FCF7B4FF4FF47A74204602F008
:1032E00001FA204602F0FEF9204602F0FBF92046E2
:1032F00002F0F8F951A0FCF7A3FF632409F10601DD
:10330000881E009A00F0B8F9B9F9060002F0CBFE69
:103310003A46434602F048FC0746884650A0FCF770
:103320008FFF052002F0DEF9641EE4B2E6D24DA064
:10333000FCF786FF4FF47A74204602F0D3F920465A
:1033400002F0D0F9204602F0CDF9204602F0CAF989
:103350003AA0FCF775FF632409F10601881E009A64
:1033600000F08AF9B9F9080002F09DFE2A463346BA
:1033700002F01AFC05460E463EA0FCF761FF052050
:1033800002F0B0F9641EE4B2E6D200223A4B504695
:10339000594602F0C5FC02F057FEA0F58050A9F88E
:1033A00034004C460022344B3846414602F0B8FC0B
:1033B00002F04AFEA0F58050E08600222E4B2846FF
:1033C000314602F0ADFC02F03FFEA0F580502087B0
:1033D0002AA0FCF735FFB4F934102FA0FCF730FF1A
:1033E000B4F9361032A0FCF72BFFB4F9381036A030
:1033F000FCF726FF3A48A18E06220180E18E41802B
:10340000218F8180BDE8F84F0146364800F024BE88
:103410000D0A5374617274204765744F6666736554
:10342000742D2D2D2D3E4163630D0A000D0A0D0AEA
:10343000537461727420580D0A0D0A00646F6E7423
:10344000206D6F76650D0A00EC000020580000002A
:103450000D0A0D0A537461727420590D0A0D0A0089
:10346000590000000D0A0D0A5374617274205A0D40
:103470000A0D0A005A000000000059400D0A456E6E
:1034800064204765744F66667365742D2D2D2D3E3F
:103490004163630D0A0000004163635F4F6666731A
:1034A00065742E78202D2D3E2025640D0A00000025
:1034B0004163635F4F66667365742E79202D2D3EE0
:1034C0002025640D0A0000004163635F4F66667348
:1034D00065742E7A202D2D3E2025640D0A000000F3
:1034E000380B002000E803082DE9F05F00200446B7
:1034F00080468146824605460646642738A0FCF78A
:103500009FFEDFF8FCB029E03D4A0E32911E881E76
:1035100000F0CBF8BBF90A0002F0C5FD4246234695
:1035200002F042FB80460C46BBF90C0002F0BBFDEA
:103530004A46534602F038FB81468A46BBF90E00E4
:1035400002F0B1FD2A46334602F02EFB05460E4638
:103550002CA0FCF775FE052002F0C4F87F1EFFB218
:10356000D2D2294F00223B464046214602F0D8FBEA
:1035700002F06AFDABF83A005C4600223B46484642
:10358000514602F0CDFB02F05FFDA08700223B46D2
:103590002846314602F0C4FB02F056FDE0871BA02E
:1035A000FCF74EFEB4F93A101FA0FCF749FEB4F93F
:1035B0003C1023A0FCF744FEB4F93E1026A0FCF713
:1035C0003FFE2B48618F0622C180A18F0181E18FD0
:1035D0004181BDE8F05F0146264800F03DBD000096
:1035E0000D0A5374617274204765744F6666736583
:1035F000742D2D2D2D3E6779726F0D0A000000008D
:10360000EC0000202E000000000059400D0A456E1D
:1036100064204765744F66667365742D2D2D2D3EAD
:103620006779726F0D0A00004779726F5F4F6666A7
:103630007365742E78202D2D3E2025640D0A000020
:103640004779726F5F4F66667365742E79202D2DF2
:103650003E2025640D0A00004779726F5F4F666651
:103660007365742E7A202D2D3E2025640D0A0000EE
:10367000380B002000E803087CB514460D460646CA
:103680006B4606223B21682000F0DEF900280BD1B2
:10369000BDF8001049BA3180BDF8021049BA29803E
:1036A000BDF8041049BA21807CBD7CB514460D4696
:1036B00006466B4606224321682000F0C5F9002823
:1036C0000BD1BDF8001049BA3180BDF8021049BADB
:1036D0002980BDF8041049BA21807CBD0C4800B592
:1036E0000022C0F8A8210B490B6823F470430B603B
:1036F0000B6843F440530B60C0F8AC2100F00CF8A9
:103700000121C0F8A81100F007F8C0F8A82100BDF9
:1037100000802142040C014000BF00BF00BF00BF79
:1037200000BF00BF7047000038B50121082000F03D
:1037300027FC4FF44064ADF8004010208DF80300E2
:103740000320064D8DF8020069462846FFF7F4F97C
:1037500021462846FFF741FA38BD0000000C014021
:103760000C4800B50022C0F8A8210B490B6823F4CF
:1037700070430B600B6843F440530B600121C0F8A9
:10378000AC11FFF7C9FFC0F8A811FFF7C5FFC0F8DB
:10379000A82100BD00802142040C014070B5024602
:1037A00014480024016821F470410160016841F46B
:1037B000004101601049204623460125C1F8A83187
:1037C000FFF7AAFFC1F8A8516406D1F82C61240EB6
:1037D0000EB1641CE4B2FFF79FFF401CC0B2082882
:1037E000ECD31AB1FFF77AFF204670BDFFF7B8FFA0
:1037F000FAE70000040C01400080214230B5104976
:103800000A6822F470420A600A6842F440520A6070
:103810000C490023C1F8A8311A460124C509C1F892
:10382000AC514006000EC1F8A841FFF775FFC1F882
:10383000A831FFF771FF521CD2B2082AEED330BD77
:10384000040C0140008021420C4800B5016821F4BD
:1038500070410160016841F4405101600848012154
:10386000C0F8AC11C0F8A811FFF756FF0021C0F84E
:10387000AC11FFF751FFC0F8A81100BD040C0140C6
:10388000008021420D4800B5016821F470410160BB
:10389000016841F44051016009480021C0F8A811B5
:1038A000C0F8AC11FFF738FF0121C0F8A811C0F82B
:1038B000AC115DF804EBFFF72FBF0000040C0140D2
:1038C00000802142134800B50268002122F47042B2
:1038D0000260026842F4004202600F480122C0F810
:1038E000AC21FFF719FFC0F8A821FFF715FF07E08B
:1038F000491CC9B2FA2903D9FFF7C4FF012000BD52
:10390000D0F82C21002AF3D10021C0F8A8110846D4
:1039100000BD0000040C0140008021421FB5FFF7EC
:1039200003FF0121084600F02BFB0121082000F0D5
:1039300027FB0124ADF80C4004208DF80F0003A9EB
:103940002D48FFF7F9F800210120FFF7E1F80020EA
:103950008DF8040008208DF8050000948DF80640CD
:103960006846FFF72BF806208DF808008DF80B400D
:103970008DF809408DF80A4002A800F0F5F8802182
:103980006B2000F0D0F8322001F0ACFE00216B205B
:1039900000F0C9F8032000F092F8022000F08AF845
:1039A0000021382000F0BFF800216A2000F0BBF8A9
:1039B000FF21232000F0B7F88021372000F0B3F872
:1039C000752000F023F8044601460CA0FCF738FCF3
:1039D000682C02D0012004B010BD01216B2000F042
:1039E000A2F800216C2000F09EF84FF47A7000F0ED
:1039F00083F80020EFE70000000C01400D0A72651B
:103A0000733A20307825580D0A00000010B504469E
:103A1000FFF71AFFD020FFF7F1FEFFF753FF204614
:103A2000FFF7ECFEFFF74EFFFFF70EFFD120FFF789
:103A3000E5FEFFF747FF0020FFF7B0FE0446FFF763
:103A400021FF204610BD00002DE9F0411D4614461F
:103A50000F460646FFF7F8FE7006000EFFF7CEFE93
:103A6000FFF730FF20B1FFF70DFF0120BDE8F08127
:103A70003846FFF7C3FEFFF725FFFFF7E5FE0120FD
:103A800000EB4600C0B2FFF7B9FEFFF71BFF09E0ED
:103A9000012C0DD05FF00100FFF780FE641E05F8D9
:103AA000010BE4B2002CF3D1FFF7ECFE0020DDE7C0
:103AB0000020F1E7C006010E1C2000F034B8C0065B
:103AC000010E1B2000F02FB8BC2801D3012110E00B
:103AD000622801D302210CE02A2801D3032108E047
:103AE000142801D3042104E00A2801D3052100E0B1
:103AF00006211A2000F017B810B504464FF47A706A
:103B0000844201D9044602E0042C00D20424B0FB14
:103B1000F4F0401EC1B2192000F005F86008BDE8BD
:103B20001040FFF7D1BF70B50C460546FFF78CFE7D
:103B3000D020FFF763FEFFF7C5FE50B92846FFF718
:103B40005DFEFFF7BFFE2046FFF758FEFFF7BAFE07
:103B500018B1FFF797FE012070BDFFF793FE00201C
:103B600070BDFEE77047000070B50F23C478017880
:103B70000122F4B1144C2468457804F4E064C4F5DF
:103B8000E064240AC4F10406E3408478B5401C4094
:103B90002C4301F1E021230181F80034007800F08A
:103BA0001F018A404009800000F1E020C0F8002198
:103BB00070BD01F01F0082404809800000F1E02044
:103BC000C0F8802170BD00000CED00E00249084300
:103BD00002490860704700000000FA050CED00E0A3
:103BE0002DE9F0411548164C4168206803F062F851
:103BF000054604F120062946306802F055FF80464C
:103C00002946606902F0DEFD01466061B06802F09D
:103C10004BFF07462846216903F04CF8716802F013
:103C200043FF064639464046256102F0CBFD31464A
:103C300002F0C8FDA061E061BDE8F0812C0B00201E
:103C40009C0000202DE9FF411F4C606802F08EFDB2
:103C500007468846A06802F089FD05460E462068A2
:103C600002F084FD8DE8E00102460B4617A0FCF748
:103C7000E7FA606902F07AFD07468846A06902F01B
:103C800075FD05460E46206902F070FD8DE8E001E5
:103C900002460B4614A0FCF7D3FA606A02F066FDF8
:103CA00007468846A06A02F061FD05460E46206A76
:103CB00002F05CFD8DE8E00102460B4611A0FCF726
:103CC000BFFABDE8FF810000BC000020526F6C6CA1
:103CD000203A09503A09256609493A0925660944F6
:103CE0003A0925660D0A000050697463683A095064
:103CF0003A09256609493A09256609443A092566BB
:103D00000D0A000059617720203A09503A092566CA
:103D100009493A09256609443A0925660D0A000051
:103D20002DE9F0411C4C61682068884602F0C2FF12
:103D3000054604F120072946386802F0B5FE06461C
:103D40002846E16802F0B6FF796802F0ADFE014650
:103D50003046E56002F036FDE06102F007FD0F4AF3
:103D60000F4B02F0F3F906460D46404602F0FEFC0A
:103D700032462B4601F018FF01F0E4FE606002F0CD
:103D8000F5FC0B46A1684A1CA260BDE8F041024662
:103D900004A0FCF755BA00009C0000209A9999995C
:103DA0009999B93F25642C25660D0A002DE9F84341
:103DB0004FF4E060ADF800001824284F8DF8034060
:103DC00002258DF8025069463846FEF7B5FE4FF4DD
:103DD0006040ADF80000DFF888808DF803408DF872
:103DE000025069464046FEF7A7FE4FF4E076ADF874
:103DF00000608DF803408DF8025069461948FEF7BF
:103E00009BFE8020ADF800008DF803408DF8025035
:103E100069463846FEF790FE0320ADF800008DF8A5
:103E200003408DF8025069464046FEF785FE0720A4
:103E3000ADF800008DF803408DF802506946384611
:103E4000FEF77AFEADF800608DF803408DF8025061
:103E500069464046FEF770FEBDE8F8830008014061
:103E6000000C01400010014010B5012142F61D0078
:103E700000F086F801210C2000F076F8FFF796FF9D
:103E8000BDE81040AFF300802DE9F041264C2046FC
:103E900000F056FD254D284600F052FD244E00212D
:103EA000304600F097FD234F0221384600F092FD86
:103EB000214820492431808808801B4A00F5A871D8
:103EC00024321180194900F29F20243108803220C9
:103ED00000F016FA192000F013FA2C2000F010FA66
:103EE00072B60121304600F045FB0121384600F052
:103EF00041FB0121204600F03DFB0121284600F056
:103F000039FB0121304600F03FFB0121384600F02B
:103F10003BFB0121204600F037FB0121284600F041
:103F200033FB62B6BDE8F081002C01400034014053
:103F3000000C0040000800403C00002070470000DA
:103F4000084A10B5A2F10800811D001DFFF794FB7F
:103F5000044A921D911E881EFFF7A7FBBDE8104082
:103F6000FEF748B9F4000020044A0029D16901D0C5
:103F7000014300E08143D16170470000001002401E
:103F8000044A0029916901D0014300E08143916115
:103F9000704700000010024030B51F494A6812F017
:103FA0000C031E4A03D0042B01D0082B21D0026041
:103FB0004A680F231A4C03EA1212A35C0268DA4023
:103FC00042604B68072505EA1323E35C22FA03F3FA
:103FD00083604B6805EAD323E35CDA40C26049683A
:103FE000032303EA9131231F595CB2FBF1F1016114
:103FF00030BD4A684B6802F470124FF0020413F4AB
:10400000803F04EB924202D04B689B0301D5054BE5
:1040100000E0024B5A43CAE70010024000127A0047
:104020002000002000093D004FF07C5110F1FF4FAF
:1040300001D202F0C7BB02F03DBE000010B5002364
:1040400006E000BF30F8024B21F813405B1C9BB226
:104050009342F7D310BD00002DE9F05FA0F100649A
:1040600015468A468346B4F5802F52D2FEF732FDBC
:10407000E70AC4F34906C6F58064A54200D82C4679
:10408000DFF894904FF0006000EBC72080464FF4BB
:1040900080622149FFF7D2FF00204FF6FF7106E052
:1040A000331839F813208A4203D1401C80B2A04251
:1040B000F6D3A04225D24046FEF7B8FC0020494680
:1040C00007E000BF3AF810208319401C21F81320A4
:1040D00080B2A042F6D3104940464FF4806200BF40
:1040E00000F01CF8A54210D0281B0AEB440AA34498
:1040F000002685B24FF480647F1CA542C2D82C46AE
:10410000C0E7224651465846EAE7BDE8F05FFEF7B1
:10411000BFBCBDE8F09F0000280200202DE9F0415F
:1041200016460F460546002408E000BF37F8141075
:104130002846FEF7B5FC641CA4B2AD1CB442F5D30E
:10414000BDE8F08170470000012080F31388054826
:104150000168054A01F4E06111430160BFF34F8F2C
:10416000FEE700000CED00E00400FA0500F00AB8DC
:1041700072B60A6802604A6842608968816062B605
:10418000704700002DE9F04115460A4604462749CC
:10419000104602F07FFB0A2102F066FEFFF744FFA3
:1041A00002F03AFCC11700EB91516FF30901401A7C
:1041B00001D500F58060C11700EB91516FF3090143
:1041C0001B4B411A05EB850233F9111043F6FF75BD
:1041D00001FB025147F6FF7691FBF6F101F5FA710A
:1041E000216000F25511CF1701EB97576FF30907C4
:1041F000C91B00F2AB2033F9111001FB025191FBF6
:10420000F6F101F5FA716160C11700EB91516FF39E
:104210000901401A33F9100000FB025090FBF6F040
:1042200000F5FA70A060BDE8F0810000DB0FC94026
:10423000440B00200EB50A4601466846FFF796FF7C
:1042400069460348FFF794FF0248FEF7D3FA0EBD14
:10425000280A0020002C01400CB5002126480191BD
:104260000091026842F4803202604FF4A063026859
:1042700002F400320092019A521C0192009A12B983
:10428000019A9A42F3D10268920333D50121009139
:104290001A490A6842F010020A600A6822F0030212
:1042A0000A600A6842F002020A604168416041689F
:1042B0004160416841F480614160416821F47C11B2
:1042C0004160416841F4E8114160016841F080714A
:1042D000016001688901FCD5416821F0030141605A
:1042E000416841F0020141604168C1F38101022946
:1042F000FAD10CBD00910CBD00100240002002401C
:1043000008B58DF8000000208DF801008DF802003E
:1043100001208DF803006846FFF726FC08BD4FF02A
:10432000E0210428086903D020F0040008617047E8
:1043300040F00400FAE700000F4810B5016841F0B2
:104340000101016041680D4A1140416001680C4A59
:1043500011400160016821F480210160416821F46D
:10436000FE0141604FF41F018160FFF775FF0549B1
:104370004FF00060086010BD001002400000FFF820
:10438000FFFFF6FE08ED00E0114810B5018821F0AE
:104390000101018072B60E481430048800202146C5
:1043A00000F07AFCB4F5487F10D20A48084A24325B
:1043B00001881180121D81881180111D00890880DB
:1043C0000348001F018821F00101018062B610BD81
:1043D000102C0140280A002010B5074C012120466E
:1043E00000F0DDF8002806D00121204600F0BFF8DB
:1043F00002490120087010BD000400403800002070
:104400007FB50C46054601210220FFF7ADFDADF852
:104410000450ADF800400024104DADF80640ADF852
:1044200002406946284600F0A3F9012211462846B9
:1044300000F0C1F81D208DF80C008DF80D40032010
:104440008DF80E0001208DF80F0003A8FFF78CFBFC
:104450000121284600F08EF87FBD000000040040D6
:10446000F0B522480188C9073FD0018821F0010139
:10447000018072B61D48143004880220214600F0E5
:104480000BFCB4F5487F2FD21A4A1948174E141D59
:10449000251D2436371D816807F1040C51B140F207
:1044A000E930108020802880002030803880ACF8EF
:1044B000000013E0104980880B88400003EB000ED9
:1044C000A2F800E08A8802EB000EA4F800E0098957
:1044D0000844288033803A80ACF800100348001F5D
:1044E000018821F00101018062B6F0BD100C00408E
:1044F0003C00002034080040400A0020114810B55C
:10450000018821F00101018072B60E481430048840
:104510000120214600F0C0FBB4F5487F10D20A48C4
:10452000084A243201881180121D81881180111DD2
:10453000008908800348001F018821F001010180E3
:1045400062B610BD10340140340A002010B50A884C
:104550004B88CC881A438B8823431A430B891A4310
:104560004B8989891A430A43A0F8442010BDC943E6
:10457000018270470029018802D041F0010101E069
:1045800021F0010101807047002930F8441F02D05A
:1045900041F4004101E0C1F30E0101807047024681
:1045A0000020138A92890B4202EA010202D0002AFB
:1045B00000D001207047002A828901D00A4300E020
:1045C0008A4382817047000030B5028C22F00102DC
:1045D0000284028C8388048B22F0020224F073058B
:1045E0000C882C430D8915434A882A43114DA84253
:1045F0000BD0114DA84208D0104DA84205D0104D47
:10460000A84202D00F4DA8420DD122F008054A89D8
:1046100023F440732A4322F004058A882A438D89B3
:104620001D43CB892B4383800483C9888186028400
:1046300030BD0000002C014000340140004001402A
:104640000044014000480140028B22F008020A4366
:104650000283704770B5028C22F010020284028C33
:104660008488038B0D8823F4E6464FF6FF7303EA34
:10467000052535430E8922F0200203EA061616436B
:104680004A8803EA02123243104EB04202D0104E62
:10469000B04215D122F080064A8924F4406403EA2E
:1046A0000212324322F040068A8803EA02123243A1
:1046B0008E8903EA86062643CC8903EA84043443C0
:1046C00084800583C9880187028470BD002C014065
:1046D00000340140028B4FF6FF7322F4006203EABC
:1046E000012111430183704770B5028C22F480725E
:1046F0000284028C8488838B0D8823F073031D430E
:1047000022F400730E894FF6FF7202EA06261E435A
:104710004B8802EA03233343104EB04202D0104EBE
:10472000B04215D123F400664B8924F4405402EAC8
:104730000323334323F480668B8802EA0323334345
:104740008E8902EA06162643CC8902EA0414344311
:1047500084808583C9888187038470BD002C0140D3
:1047600000340140828B22F008020A4382837047A2
:1047700030B502881B4B1C4C98420DD0A0420BD088
:10478000B0F1804F08D0194DA84205D0184DA8426D
:1047900002D0184DA84203D122F070054A882A435E
:1047A000154DA84206D0154DA84203D022F44075FD
:1047B000CA882A4302808A8882850A8802859842AC
:1047C0000AD0A04208D00E4A904205D00D4A90422D
:1047D00002D00D4A904201D1097A018601218182DD
:1047E00030BD0000002C01400034014000040040B6
:1047F00000080040000C0040001000400014004081
:104800000040014000440140004801402DE9FF47BD
:104810003148007800285DD0304C0025A088401C2D
:1048200080B2A080E188491CE1802189491C218156
:104830006189491C6181A189491CA181E189491CC7
:10484000E1812169491C2161012808D1A580FFF778
:1048500077FBFEF7E3F9207808B1FDF741FDE0882A
:1048600002280BD1E580FFF7BBF91D48C06802F0B4
:10487000D3F801461B480068FFF7DCFC20890528B7
:1048800000D1258160890A2804D16581A07808B10A
:10489000FFF746FAA0890A2817D1A5816078A0B150
:1048A000114FB86801F062FF81468A46786801F0CE
:1048B0005DFF06468846386801F058FF8DE84007DE
:1048C00002460B4609A0FBF7BBFCE089B0F57A7FF6
:1048D00000D1E581BDE8FF870000002050000020E6
:1048E000BC000020B80000202C0B0020252D352E08
:1048F0003266092C252D352E3266092C252D352EB4
:1049000032660D0A0000000070B50C460546FFF740
:104910005BFE21462846FFF79DFE21462846FFF70D
:10492000E3FE08212846FFF78FFE08212846FFF7FF
:10493000D1FE2846BDE870400821FFF713BF0000F4
:1049400070B58CB006460320ADF8200000244FF46B
:104950007A70ADF82400ADF82240ADF826408DF80D
:10496000284008A93046FFF703FF4FF40060ADF878
:1049700010004010ADF8120085101548ADF8145025
:1049800004A90088ADF81600ADF818406801ADF82C
:104990001A004000ADF81C003046FFF7D7FD60203C
:1049A000ADF800000120ADF802000420ADF80400CD
:1049B000ADF80840ADF80C50ADF80640ADF80A402F
:1049C000ADF80E4069463046FFF79EFF0CB070BD53
:1049D0003C00002070B588B006460320ADF81000FA
:1049E0004FF47A70ADF814004FF400700C460025B7
:1049F000ADF81600ADF8125004A93046FFF7B8FE26
:104A00006020ADF800000120ADF80200ADF80650BE
:104A1000ADF8084069463046FFF776FF08B070BD34
:104A200070B5174C40F22551204600F0A3F800283D
:104A30000ED0204600F02CF9C2B2124801880B04B7
:104A400006D44C044FF000030AD50A2A01D0038093
:104A500070BD41F400410180BDE87040FDF7D4BE57
:104A60000D2A09D0C1F30D04074D491C89B22A55FE
:104A70000180C729EBD870BD41F48041018070BD31
:104A8000004C0040300000206001002070B5054659
:104A900086B001211020FFF773FA0121C804FFF747
:104AA00063FA4FF48060ADF8100018208DF8130001
:104AB0001E4E03248DF8124004A93046FEF73CF840
:104AC000F014ADF8100028208DF8130004A930462A
:104AD000FEF732F800200095ADF80800ADF80400AC
:104AE0000C21134DADF80600ADF80A10ADF80C001E
:104AF0006946284600F076F834208DF814008DF8C9
:104B000015408DF8164001208DF8170005A8FFF715
:104B10002BF8012240F22551284600F04AF80121E5
:104B2000284600F01DF806B070BD000000100140DE
:104B3000004C004003490A885206FCD50149091D72
:104B400008807047004C004030B50C4605460023F5
:104B500003E0E85CFFF7EEFF5B1CA342F9D330BD36
:104B60000029818902D041F4005101E021F4005173
:104B70008181704730B501F01F0201240025C1F387
:104B8000421304FA02F2012B0FD0022B0FD0838ABA
:104B90004FEA11210088134204FA01F400EA0400EC
:104BA00001D000B10125284630BD8389F0E7038A92
:104BB000EEE710B5C1F3421301F01F040121A1403B
:104BC000012B07D0022B07D01430002A026805D031
:104BD0000A4304E00C30F8E71030F6E78A4302603D
:104BE00010BD000030B50446008A85B00D464CF675
:104BF000FF710840E98801432182A1894EF6F31034
:104C00000140A8882A8910436A890A431043A08179
:104C1000A08A4FF6FF410840A9890143A182684656
:104C2000FFF7BAF91948844201D1039800E00298CD
:104C3000A189090400EBC00101EB0010296801D52E
:104C4000490000E08900B0FBF1F06422B0FBF2F112
:104C500009010B096FF018056B4300EB8300A38972
:104C60001D044FF0320306D503EBC000B0FBF2F099
:104C700000F0070005E003EB0010B0FBF2F000F0DD
:104C80000F000843208105B030BD0000003801400E
:104C90008088C0F3080070470A4A52F820305B1C35
:104CA00042F82030183A52F820308B4201DA42F8AC
:104CB0002010044A0C3A52F820308B4201DD42F8B1
:104CC00020107047640A0020FEE7490050EAC12026
:104CD00018BF04204A0D18BF40F0010040F2FF72D7
:104CE000B2EB515F08BF40F00200012808BF052069
:104CF00070474100080218BF04200A0E18BF40F098
:104D000001004FF07F4232EA010108BF40F002008B
:104D1000012808BF052070472DE9F0414F1E00EB28
:104D2000C7010446D1E9000115461E4637F00602C8
:104D30000DD02A46334601F009FA7F1E04EBC70363
:104D4000D3E9002300F030FF37F00602F1D1022F43
:104D500025D0042F13D0062F18BFBDE8F0812A46B6
:104D6000334601F0F3F9D4E90A2300F01DFF2A4687
:104D7000334601F0EBF9D4E9082300F015FF2A4689
:104D8000334601F0E3F9D4E9062300F00DFF2A468B
:104D9000334601F0DBF9D4E9042300F005FF2A468D
:104DA000334601F0D3F9D4E9022300F0FDFE2A4690
:104DB000334601F0CBF9D4E90023BDE8F04100F01F
:104DC000F3BE012202F022B800F0EEBE002213462C
:104DD0001046114600F0A4BF40F2013200204FF00F
:104DE000E04102F013B80000024A0020110702F06F
:104DF0000DB8000001FDFFFF012102F035B80021D0
:104E0000084601F047BD6FF05E01080702F02CB8BC
:104E100010B50446D1E9000100F0B6F8206010BDDD
:104E20002DE9F04D0D4614464FF07F41B1EB440F94
:104E30009EBF4FF0FF312960BDE8F08D4FF000407C
:104E400040EA0421C4F3C750783810F01F024A4BDF
:104E50004FEA601CC2F120067B44C4F3C750A0F1A6
:104E600078004FEA601003EB800053F82C3008BF45
:104E7000D0E901C612D0D0F804C093402CFA06F74E
:104E80003B4387680CFA02FC27FA06F8C06807FA69
:104E900002F2F0404CEA080C42EA0006A3FB0132A1
:104EA000ACFB01C0A6FB016101EB0C068E4234BFD6
:104EB0004FF0010C4FF0000CC1186144BCF1000F21
:104EC00002D0814202D903E0814201D2012000E0F8
:104ED0000020104400F120024FEA92188006CA0C0C
:104EE00040EA42304F03C5F8008001F0B1FD824630
:104EF000384601F0C5FD6FF0120101F0B5FF07461D
:104F0000304601F0BDFD6FF0250101F0ADFF834695
:104F10003946504601F056FC594601F053FC00F565
:104F200000666FF30B065146304601F0C3FE39466A
:104F300001F0C0FE594601F0B3FE104901F0B4FD86
:104F400007460F49304601F0AFFD394601F03AFC03
:104F500007460C49304601F0A7FD394601F032FC06
:104F600014F0004F08BFBDE8F08DC8F1805180F00B
:104F700000402960BDE8F08DC4210000DB0FC92F7F
:104F800022AAFD290000C92FF8B504460D466A463D
:104F900000F0CCFB00987E30009000281EDC002240
:104FA00013462046294601F013F817D0002140F699
:104FB00008004FF0000006462046294600F0C2FDDA
:104FC000044640F6080006EA00014FF0000034F005
:104FD000004004BF0220FBF7D8FA29E00098FF2820
:104FE00028DB002108464FF0000000F440060022B4
:104FF00013462046294601F0A7F98CBF002501255C
:105000000220FBF7C2FA4FF0FF4446B1002D0CBF5F
:105010004FF400004FF48000B04218BF084C042148
:1050200008464FF00000002D04BF84F00040F8BD9A
:105030002046F8BD20462946BDE8F84000F082BD74
:10504000FFFF7F7F10B504460A46D4E900031946E6
:1050500000F098FBC4E9000110BD30380A2801D2E5
:105060000120704700207047704700002DE9F04D87
:105070008D4F21F0004A86B005460C46BA452ADB22
:10508000AAEB070028430AD08848824501DC1AD1E0
:10509000CDB106B02846BDE8F04DFFF792BE844A78
:1050A000844B284601F052F807460E46824A834B4D
:1050B0002846214601F04AF806B03A463346BDE894
:1050C000F04D00F071BD0120FBF75FFA06B0BDE8BE
:1050D000F04DFFF77BBE7A48824542DABAF1795F3C
:1050E0000BDA2846FFF7F1FD042808BFFFF77CFE26
:1050F000284606B02146BDE8F08D2A460B461046EC
:1051000001F024F8834602466E480E460B460621FF
:105110007844FFF701FE5A46334601F017F88046FF
:1051200069488A465A46334604217844FFF7F4FD1D
:105130005A46334601F00AF800223B4600F034FD9F
:1051400002460B464046514600F0EAFD2A462346F9
:1051500000F0FCFF06B02A462346BDE8F04D00F003
:1051600023BD284624F0004100223D463B4601F085
:1051700021F94FF0FF3201F049FE0646024653483E
:105180000F460B4606217844FFF7C6FD32463B46E4
:1051900000F0DCFFCDE900014D4832463B460421DA
:1051A0007844FFF7B9FD32463B4600F0CFFF0022BE
:1051B0002B4600F0F9FC834602913046394600F058
:1051C0006FFC804643480D46504517DCDDE9000181
:1051D0005A46029B00F0A4FD42462B4600F0B6FF63
:1051E00042462B4600F0E0FC012201F00FFE304A5F
:1051F000304B01F0D1F9304A304B4CE04FF0000A0F
:1052000052460B46404600F0CFFCCDE90310524613
:105210002B461046194600F099FF32463B4601F0F6
:10522000C9F8DDE9033200F07BFD06460F46DDE9F3
:1052300000015A46029B00F073FD83460091012253
:105240003046394601F0E2FD194A1A4B01F0B2F836
:1052500006460F4601224046294601F0D7FD5A4630
:10526000009B00F073FF32463B4601F095F906467D
:105270000F4601225046294601F0C8FD0E4DDFF8C9
:1052800058802A46434601F095F832463B4601F0E5
:1052900091F82A46434601F08DF8002CD8BF81F0E2
:1052A000004106B0BDE8F08D0000F03F0000F07F47
:1052B000075C143326A6913C182D4454FB21F93F7A
:1052C0000000E03F1C1E0000321E0000A61D000072
:1052D000BC1D00003333EF3FFB21E93F2DE9F84FC0
:1052E00004460D4621F0004000917349814211DCD3
:1052F0007249884201DC06D12CB120462946BDE81E
:10530000F84FFFF75EBD6E48002DCCBF6D496E496A
:10531000BDE8F88F6D49814211DD6D498142D8BFEA
:105320004FF0FF366DDD20462946FFF7CEFC0428FE
:1053300008BFFFF759FD20462946BDE8F88F6549AB
:10534000654F25F00045814233DD6449814219DD16
:10535000002632464FF080432046294600F024FCC8
:1053600080468A4601222046294601F04FFD002250
:105370003B4601F011F94246534600F0D1FC044689
:105380000D463EE001260022BA463B46204629460D
:1053900000F00AFC80460F4600225346204629466C
:1053A00001F0FAF842463B4600F0BAFC04460D46CE
:1053B00027E04B4981421BDDDFF828A102260022AD
:1053C00053462046294600F0C1FE00223B4600F02D
:1053D000EBFB80460F46002253462046294601F04B
:1053E000DBF842463B4600F09BFC04460D4608E0D5
:1053F000032622462B4600203B4900F091FC044640
:105400000D4622462B461046194600F09FFE8B465D
:10541000824602460B4600F099FE07460246334894
:1054200088460B4606217844FFF776FC52465B46D9
:1054300000F08CFE82462E488B463A4643460521B4
:105440007844FFF769FC3A46434600F07FFE024687
:105450000B46002E504659460CDA00F0A5FB2246BA
:105460002B4600F073FE01B022462B46BDE8F04FFC
:1054700000F0A0BF00F098FB22462B4600F066FE2D
:105480001C4A7A4402EBC603D3E9002301F084F8F6
:1054900022462B4601F080F8174A7A4402EBC603F5
:1054A000D3E9002300F086FF009A002AB8BF81F0FC
:1054B0000041BDE8F88F0000000010440000F07FBC
:1054C000182D4454FB21F93FFB21F9BF0000DC3FBC
:1054D0000000203E0000F33F0000F03F0000E63FE8
:1054E000008003400000F83F0000F0BFBE1B00003A
:1054F0007C1B00001A1B0000E21A00002DE9F04D91
:105500009446CCF1000423F000464CEA0404524FC8
:1055100046EAD4749A46884621F00042BC4206D836
:10552000454240EA050442EAD474BC4204D9BDE8CD
:10553000F04D6246FFF748BCAAF14055A5F17F65E2
:1055400055EA0C040BD0022404EAAA74434DDFF898
:1055500010E144EAD87452EA000B04D00CE0BDE834
:10556000F04DFFF7BBBE002C14BF012CBDE8F08D41
:10557000022C30D0032C32D056EA0C0B0AD0BE429B
:1055800020D1BA4209D126F0804622F0804233462B
:10559000114617E000291ADB25E0DFF8C8B0FB440C
:1055A000002C04BFDBE90001BDE8F08D012C02BF37
:1055B000DBE9000181F00041BDE8F08D022C0AD04A
:1055C000032C0CD0BA4212D1B8F1000F0BDA2348E9
:1055D0002549BDE8F08D28462449BDE8F08D2846D0
:1055E0007146BDE8F08D1D482149BDE8F08D921B44
:1055F00012153C2AC4BF19481D490EDCBAF1000F30
:10560000BEBF12F13C0F0020014606DB624600F0EF
:1056100087FB21F00041FFF761FE002C08BFBDE8C9
:10562000F08D012C04BF81F00041BDE8F08D114ADE
:10563000114B022C07D000F0AFFF2A46BDE8F04D19
:105640000A4B00F0A9BF00F0A7FF2A46BDE8F04DC5
:10565000064B00F0AFBE00000000F07F182D445450
:10566000FB2109C0761A0000FB21F9BFFB2109408C
:10567000FB21F93F075C143326A6A13C30B583B06B
:105680000446FAF77DFF05460020CDE900000246FA
:1056900021466846FBF718FA2846FAF776FFDDE957
:1056A000000103B030BD000010B56FF00400FEF73C
:1056B00036FE094809490068B0FBF1F0C1B208485C
:1056C00001EB41020170C2EBC1114FF6FF7202EA19
:1056D000C101418010BD00000400002000127A00CA
:1056E000180000200B49498848434FF0E0214861E9
:1056F00000228A61086940F0010008610869C30757
:1057000001D0C003FAD5086920F0010008618A6160
:10571000704700001800002003490A885206FCD593
:105720000149091D08807047004C004010B514461F
:1057300000222260114A21F000439342A8BF10BD0D
:1057400053EA000208BF10BDB3F5801FA8BF22684E
:1057500007DA362201F05AFB6FF0350221F00043E0
:105760002260DFF81CC06FF31E510CEB23531A4468
:1057700041F0FF5141F00051226010BD0000F07F68
:1057800002FCFFFF2DE9F04106460C4640F2FF7592
:10579000174635EA14502BD000221346304600F04D
:1057A00017FC25D03A463046214601F02FFB06462D
:1057B0000C4635EA145010D000221346304600F053
:1057C00007FC15D10220FAF7E0FEFFF70DFB0A46B1
:1057D000214662F31E01BDE8F0810220FAF7D5FEF2
:1057E000FFF7FAFA0A46214662F31E01BDE8F0818E
:1057F00030462146BDE8F0810EB5FFF755FF4FF466
:10580000A060FEF7E3F9214D00244FF4E1302C7045
:10581000FFF73CF9FEF728FB472140F2E730FEF79F
:10582000EFFDFCF739FD4FF4FA7605E018A0FAF722
:1058300007FD3046FFF756FFFEF770F80028F5D158
:105840001AA0FAF7FDFCFDF7CBF91FA0FAF7F8FC58
:105850002048B0F93410B0F93830B0F936208DE86E
:105860000E00B0F93E30B0F93C20B0F93A101AA061
:10587000FAF7E6FCFDF7C2FC01202870254D2878D8
:105880000028FCD02C70FEF7C1FFF8E700000020D4
:105890000D0A4D50553630353020696E69742066DA
:1058A00061696C65642E2E2E0D0A00000D0A4D50A4
:1058B000553630353020696E6974207375636365C1
:1058C00073732E2E2E0D0A00636F6E6669673A2081
:1058D0000D0A0000EC0000206779726F2D2D2D3E1F
:1058E00009583A20256409593A202564095A3A2072
:1058F00025640D0A416363202D2D2D3E09583A2061
:10590000256409593A202564095A3A2025640D0A6C
:1059100000000000380000202DE9F843044602464C
:1059200052486946B0EB420F09D94FF0E640B0EB60
:10593000420F94BF00204FF0FF30009030E04C4BFE
:1059400022F00040834271D94A49204601F0ACF868
:1059500001F076F9804601F05FF800F00300009056
:105960004549404601F0A0F805464449404601F04B
:105970009BF806464249404601F096F807464149E1
:10598000404601F091F8214601F08AF9394601F0CC
:1059900091F9314601F08EF9294601F08BF9044660
:1059A0002546009C002C45DB294614F0010F0846D3
:1059B0001ED001F079F80546334901F075F83349F6
:1059C00000F000FF294601F06FF8314900F0FAFEBF
:1059D000294601F069F84FF07E5100F0F3FE14F013
:1059E000020F08BFBDE8F88380F00040BDE8F883EF
:1059F00001F05AF80646274901F056F8264901F009
:105A00004FF9314601F050F8244900F0DBFE3146F1
:105A100001F04AF8294601F047F8294600F0D2FE85
:105A200014F0020FE0D1BDE8F883FFE71046FFF75E
:105A3000F7F9B4E76800B0F17F4F09D22846FFF7C5
:105A400058F9042808BFFFF7DEF92846BDE8F883B7
:105A500006D10120FAF799FDBDE8F843FFF7CFB969
:105A60002846BDE8F843FFF7C7B90000B61F927E8D
:105A7000490E494683F9223F1A61342C0020A23393
:105A800000A0FD390000C93FB93AB2BACA9F2A3D09
:105A9000DDFFFFBE336D4C39DA82083CA0AA2ABE76
:105AA0002DE9F04106460F4600F090FC041E0D461D
:105AB00018BF0120284320F00040C0F17F6000F1B2
:105AC000E040C00F0ED0301C18BF0120384320F03A
:105AD0000040C0F17F6000F1E040C00F04BF012032
